{
  "contractName": "Character",
  "abi": [
    {
      "constant": true,
      "inputs": [
        {
          "name": "interfaceId",
          "type": "bytes4"
        }
      ],
      "name": "supportsInterface",
      "outputs": [
        {
          "name": "",
          "type": "bool"
        }
      ],
      "payable": false,
      "stateMutability": "view",
      "type": "function",
      "signature": "0x01ffc9a7"
    },
    {
      "constant": true,
      "inputs": [],
      "name": "name",
      "outputs": [
        {
          "name": "",
          "type": "string"
        }
      ],
      "payable": false,
      "stateMutability": "view",
      "type": "function",
      "signature": "0x06fdde03"
    },
    {
      "constant": true,
      "inputs": [
        {
          "name": "tokenId",
          "type": "uint256"
        }
      ],
      "name": "getApproved",
      "outputs": [
        {
          "name": "",
          "type": "address"
        }
      ],
      "payable": false,
      "stateMutability": "view",
      "type": "function",
      "signature": "0x081812fc"
    },
    {
      "constant": true,
      "inputs": [
        {
          "name": "",
          "type": "uint256"
        }
      ],
      "name": "tokenProperty",
      "outputs": [
        {
          "name": "hair",
          "type": "string"
        },
        {
          "name": "face",
          "type": "string"
        }
      ],
      "payable": false,
      "stateMutability": "view",
      "type": "function",
      "signature": "0x08c243aa"
    },
    {
      "constant": false,
      "inputs": [
        {
          "name": "to",
          "type": "address"
        },
        {
          "name": "tokenId",
          "type": "uint256"
        }
      ],
      "name": "approve",
      "outputs": [],
      "payable": false,
      "stateMutability": "nonpayable",
      "type": "function",
      "signature": "0x095ea7b3"
    },
    {
      "constant": true,
      "inputs": [],
      "name": "totalSupply",
      "outputs": [
        {
          "name": "",
          "type": "uint256"
        }
      ],
      "payable": false,
      "stateMutability": "view",
      "type": "function",
      "signature": "0x18160ddd"
    },
    {
      "constant": false,
      "inputs": [
        {
          "name": "from",
          "type": "address"
        },
        {
          "name": "to",
          "type": "address"
        },
        {
          "name": "tokenId",
          "type": "uint256"
        }
      ],
      "name": "transferFrom",
      "outputs": [],
      "payable": false,
      "stateMutability": "nonpayable",
      "type": "function",
      "signature": "0x23b872dd"
    },
    {
      "constant": true,
      "inputs": [
        {
          "name": "owner",
          "type": "address"
        },
        {
          "name": "index",
          "type": "uint256"
        }
      ],
      "name": "tokenOfOwnerByIndex",
      "outputs": [
        {
          "name": "",
          "type": "uint256"
        }
      ],
      "payable": false,
      "stateMutability": "view",
      "type": "function",
      "signature": "0x2f745c59"
    },
    {
      "constant": false,
      "inputs": [
        {
          "name": "from",
          "type": "address"
        },
        {
          "name": "to",
          "type": "address"
        },
        {
          "name": "tokenId",
          "type": "uint256"
        }
      ],
      "name": "safeTransferFrom",
      "outputs": [],
      "payable": false,
      "stateMutability": "nonpayable",
      "type": "function",
      "signature": "0x42842e0e"
    },
    {
      "constant": true,
      "inputs": [
        {
          "name": "",
          "type": "uint256"
        }
      ],
      "name": "characters",
      "outputs": [
        {
          "name": "hair",
          "type": "string"
        },
        {
          "name": "face",
          "type": "string"
        }
      ],
      "payable": false,
      "stateMutability": "view",
      "type": "function",
      "signature": "0x4810bc59"
    },
    {
      "constant": true,
      "inputs": [
        {
          "name": "index",
          "type": "uint256"
        }
      ],
      "name": "tokenByIndex",
      "outputs": [
        {
          "name": "",
          "type": "uint256"
        }
      ],
      "payable": false,
      "stateMutability": "view",
      "type": "function",
      "signature": "0x4f6ccce7"
    },
    {
      "constant": true,
      "inputs": [
        {
          "name": "tokenId",
          "type": "uint256"
        }
      ],
      "name": "ownerOf",
      "outputs": [
        {
          "name": "",
          "type": "address"
        }
      ],
      "payable": false,
      "stateMutability": "view",
      "type": "function",
      "signature": "0x6352211e"
    },
    {
      "constant": true,
      "inputs": [
        {
          "name": "owner",
          "type": "address"
        }
      ],
      "name": "balanceOf",
      "outputs": [
        {
          "name": "",
          "type": "uint256"
        }
      ],
      "payable": false,
      "stateMutability": "view",
      "type": "function",
      "signature": "0x70a08231"
    },
    {
      "constant": true,
      "inputs": [
        {
          "name": "",
          "type": "uint256"
        }
      ],
      "name": "baseFace",
      "outputs": [
        {
          "name": "",
          "type": "string"
        }
      ],
      "payable": false,
      "stateMutability": "view",
      "type": "function",
      "signature": "0x8c6ff1bd"
    },
    {
      "constant": true,
      "inputs": [
        {
          "name": "",
          "type": "uint256"
        }
      ],
      "name": "baseHair",
      "outputs": [
        {
          "name": "",
          "type": "string"
        }
      ],
      "payable": false,
      "stateMutability": "view",
      "type": "function",
      "signature": "0x91c3d15e"
    },
    {
      "constant": true,
      "inputs": [],
      "name": "symbol",
      "outputs": [
        {
          "name": "",
          "type": "string"
        }
      ],
      "payable": false,
      "stateMutability": "view",
      "type": "function",
      "signature": "0x95d89b41"
    },
    {
      "constant": false,
      "inputs": [
        {
          "name": "to",
          "type": "address"
        },
        {
          "name": "approved",
          "type": "bool"
        }
      ],
      "name": "setApprovalForAll",
      "outputs": [],
      "payable": false,
      "stateMutability": "nonpayable",
      "type": "function",
      "signature": "0xa22cb465"
    },
    {
      "constant": false,
      "inputs": [
        {
          "name": "from",
          "type": "address"
        },
        {
          "name": "to",
          "type": "address"
        },
        {
          "name": "tokenId",
          "type": "uint256"
        },
        {
          "name": "_data",
          "type": "bytes"
        }
      ],
      "name": "safeTransferFrom",
      "outputs": [],
      "payable": false,
      "stateMutability": "nonpayable",
      "type": "function",
      "signature": "0xb88d4fde"
    },
    {
      "constant": true,
      "inputs": [
        {
          "name": "tokenId",
          "type": "uint256"
        }
      ],
      "name": "tokenURI",
      "outputs": [
        {
          "name": "",
          "type": "string"
        }
      ],
      "payable": false,
      "stateMutability": "view",
      "type": "function",
      "signature": "0xc87b56dd"
    },
    {
      "constant": true,
      "inputs": [
        {
          "name": "owner",
          "type": "address"
        },
        {
          "name": "operator",
          "type": "address"
        }
      ],
      "name": "isApprovedForAll",
      "outputs": [
        {
          "name": "",
          "type": "bool"
        }
      ],
      "payable": false,
      "stateMutability": "view",
      "type": "function",
      "signature": "0xe985e9c5"
    },
    {
      "inputs": [],
      "payable": false,
      "stateMutability": "nonpayable",
      "type": "constructor",
      "signature": "constructor"
    },
    {
      "anonymous": false,
      "inputs": [
        {
          "indexed": true,
          "name": "from",
          "type": "address"
        },
        {
          "indexed": true,
          "name": "to",
          "type": "address"
        },
        {
          "indexed": true,
          "name": "tokenId",
          "type": "uint256"
        }
      ],
      "name": "Transfer",
      "type": "event",
      "signature": "0xddf252ad1be2c89b69c2b068fc378daa952ba7f163c4a11628f55a4df523b3ef"
    },
    {
      "anonymous": false,
      "inputs": [
        {
          "indexed": true,
          "name": "owner",
          "type": "address"
        },
        {
          "indexed": true,
          "name": "approved",
          "type": "address"
        },
        {
          "indexed": true,
          "name": "tokenId",
          "type": "uint256"
        }
      ],
      "name": "Approval",
      "type": "event",
      "signature": "0x8c5be1e5ebec7d5bd14f71427d1e84f3dd0314c0f7b2291e5b200ac8c7c3b925"
    },
    {
      "anonymous": false,
      "inputs": [
        {
          "indexed": true,
          "name": "owner",
          "type": "address"
        },
        {
          "indexed": true,
          "name": "operator",
          "type": "address"
        },
        {
          "indexed": false,
          "name": "approved",
          "type": "bool"
        }
      ],
      "name": "ApprovalForAll",
      "type": "event",
      "signature": "0x17307eab39ab6107e8899845ad3d59bd9653f200f220920489ca2b5937696c31"
    },
    {
      "constant": false,
      "inputs": [],
      "name": "mint",
      "outputs": [],
      "payable": false,
      "stateMutability": "nonpayable",
      "type": "function",
      "signature": "0x1249c58b"
    },
    {
      "constant": true,
      "inputs": [
        {
          "name": "_tokenId",
          "type": "uint256"
        }
      ],
      "name": "getTokenProperties",
      "outputs": [
        {
          "name": "_hair",
          "type": "string"
        },
        {
          "name": "_face",
          "type": "string"
        }
      ],
      "payable": false,
      "stateMutability": "view",
      "type": "function",
      "signature": "0x4edea111"
    }
  ],
  "bytecode": "0x60806040526080604051908101604052806040805190810160405280600581526020017f333030323000000000000000000000000000000000000000000000000000000081525081526020016040805190810160405280600581526020017f333034303000000000000000000000000000000000000000000000000000000081525081526020016040805190810160405280600581526020017f333030303000000000000000000000000000000000000000000000000000000081525081526020016040805190810160405280600581526020017f3331343030000000000000000000000000000000000000000000000000000000815250815250600d9060046200010c929190620004ee565b506080604051908101604052806040805190810160405280600581526020017f353030303200000000000000000000000000000000000000000000000000000081525081526020016040805190810160405280600581526020017f353031323600000000000000000000000000000000000000000000000000000081525081526020016040805190810160405280600581526020017f353030303600000000000000000000000000000000000000000000000000000081525081526020016040805190810160405280600581526020017f3530303339000000000000000000000000000000000000000000000000000000815250815250600e90600462000215929190620004ee565b5060006011553480156200022857600080fd5b506040805190810160405280600981526020017f43686172616374657200000000000000000000000000000000000000000000008152506040805190810160405280600981526020017f43484152414354455200000000000000000000000000000000000000000000008152508181620002d46301ffc9a77c010000000000000000000000000000000000000000000000000000000002620003c7640100000000026401000000009004565b620003116380ac58cd7c010000000000000000000000000000000000000000000000000000000002620003c7640100000000026401000000009004565b6200034e63780e9d637c010000000000000000000000000000000000000000000000000000000002620003c7640100000000026401000000009004565b81600990805190602001906200036692919062000555565b5080600a90805190602001906200037f92919062000555565b50620003bd635b5e139f7c010000000000000000000000000000000000000000000000000000000002620003c7640100000000026401000000009004565b5050505062000708565b63ffffffff7c010000000000000000000000000000000000000000000000000000000002817bffffffffffffffffffffffffffffffffffffffffffffffffffffffff19161415151562000482576040517f08c379a000000000000000000000000000000000000000000000000000000000815260040180806020018281038252601c8152602001807f4552433136353a20696e76616c696420696e746572666163652069640000000081525060200191505060405180910390fd5b6001600080837bffffffffffffffffffffffffffffffffffffffffffffffffffffffff19167bffffffffffffffffffffffffffffffffffffffffffffffffffffffff1916815260200190815260200160002060006101000a81548160ff02191690831515021790555050565b82805482825590600052602060002090810192821562000542579160200282015b828111156200054157825182908051906020019062000530929190620005dc565b50916020019190600101906200050f565b5b50905062000551919062000663565b5090565b828054600181600116156101000203166002900490600052602060002090601f016020900481019282601f106200059857805160ff1916838001178555620005c9565b82800160010185558215620005c9579182015b82811115620005c8578251825591602001919060010190620005ab565b5b509050620005d8919062000694565b5090565b828054600181600116156101000203166002900490600052602060002090601f016020900481019282601f106200061f57805160ff191683800117855562000650565b8280016001018555821562000650579182015b828111156200064f57825182559160200191906001019062000632565b5b5090506200065f919062000694565b5090565b6200069191905b808211156200068d5760008181620006839190620006bc565b506001016200066a565b5090565b90565b620006b991905b80821115620006b55760008160009055506001016200069b565b5090565b90565b50805460018160011615610100020316600290046000825580601f10620006e4575062000705565b601f01602090049060005260206000209081019062000704919062000694565b5b50565b6132d680620007186000396000f3fe608060405260043610610128576000357c0100000000000000000000000000000000000000000000000000000000900463ffffffff16806301ffc9a71461012d57806306fdde031461019f578063081812fc1461022f57806308c243aa146102aa578063095ea7b3146103ca5780631249c58b1461042557806318160ddd1461043c57806323b872dd146104675780632f745c59146104e257806342842e0e146105515780634810bc59146105cc5780634edea111146106ec5780634f6ccce71461080c5780636352211e1461085b57806370a08231146108d65780638c6ff1bd1461093b57806391c3d15e146109ef57806395d89b4114610aa3578063a22cb46514610b33578063b88d4fde14610b90578063c87b56dd14610ca2578063e985e9c514610d56575b600080fd5b34801561013957600080fd5b506101856004803603602081101561015057600080fd5b8101908080357bffffffffffffffffffffffffffffffffffffffffffffffffffffffff19169060200190929190505050610ddf565b604051808215151515815260200191505060405180910390f35b3480156101ab57600080fd5b506101b4610e46565b6040518080602001828103825283818151815260200191508051906020019080838360005b838110156101f45780820151818401526020810190506101d9565b50505050905090810190601f1680156102215780820380516001836020036101000a031916815260200191505b509250505060405180910390f35b34801561023b57600080fd5b506102686004803603602081101561025257600080fd5b8101908080359060200190929190505050610ee8565b604051808273ffffffffffffffffffffffffffffffffffffffff1673ffffffffffffffffffffffffffffffffffffffff16815260200191505060405180910390f35b3480156102b657600080fd5b506102e3600480360360208110156102cd57600080fd5b8101908080359060200190929190505050610fc8565b604051808060200180602001838103835285818151815260200191508051906020019080838360005b8381101561032757808201518184015260208101905061030c565b50505050905090810190601f1680156103545780820380516001836020036101000a031916815260200191505b50838103825284818151815260200191508051906020019080838360005b8381101561038d578082015181840152602081019050610372565b50505050905090810190601f1680156103ba5780820380516001836020036101000a031916815260200191505b5094505050505060405180910390f35b3480156103d657600080fd5b50610423600480360360408110156103ed57600080fd5b81019080803573ffffffffffffffffffffffffffffffffffffffff1690602001909291908035906020019092919050505061111c565b005b34801561043157600080fd5b5061043a61137f565b005b34801561044857600080fd5b50610451611608565b6040518082815260200191505060405180910390f35b34801561047357600080fd5b506104e06004803603606081101561048a57600080fd5b81019080803573ffffffffffffffffffffffffffffffffffffffff169060200190929190803573ffffffffffffffffffffffffffffffffffffffff16906020019092919080359060200190929190505050611615565b005b3480156104ee57600080fd5b5061053b6004803603604081101561050557600080fd5b81019080803573ffffffffffffffffffffffffffffffffffffffff169060200190929190803590602001909291905050506116c9565b6040518082815260200191505060405180910390f35b34801561055d57600080fd5b506105ca6004803603606081101561057457600080fd5b81019080803573ffffffffffffffffffffffffffffffffffffffff169060200190929190803573ffffffffffffffffffffffffffffffffffffffff169060200190929190803590602001909291905050506117cf565b005b3480156105d857600080fd5b50610605600480360360208110156105ef57600080fd5b81019080803590602001909291905050506117f0565b604051808060200180602001838103835285818151815260200191508051906020019080838360005b8381101561064957808201518184015260208101905061062e565b50505050905090810190601f1680156106765780820380516001836020036101000a031916815260200191505b50838103825284818151815260200191508051906020019080838360005b838110156106af578082015181840152602081019050610694565b50505050905090810190601f1680156106dc5780820380516001836020036101000a031916815260200191505b5094505050505060405180910390f35b3480156106f857600080fd5b506107256004803603602081101561070f57600080fd5b8101908080359060200190929190505050611953565b604051808060200180602001838103835285818151815260200191508051906020019080838360005b8381101561076957808201518184015260208101905061074e565b50505050905090810190601f1680156107965780820380516001836020036101000a031916815260200191505b50838103825284818151815260200191508051906020019080838360005b838110156107cf5780820151818401526020810190506107b4565b50505050905090810190601f1680156107fc5780820380516001836020036101000a031916815260200191505b5094505050505060405180910390f35b34801561081857600080fd5b506108456004803603602081101561082f57600080fd5b8101908080359060200190929190505050611ac3565b6040518082815260200191505060405180910390f35b34801561086757600080fd5b506108946004803603602081101561087e57600080fd5b8101908080359060200190929190505050611b8a565b604051808273ffffffffffffffffffffffffffffffffffffffff1673ffffffffffffffffffffffffffffffffffffffff16815260200191505060405180910390f35b3480156108e257600080fd5b50610925600480360360208110156108f957600080fd5b81019080803573ffffffffffffffffffffffffffffffffffffffff169060200190929190505050611c97565b6040518082815260200191505060405180910390f35b34801561094757600080fd5b506109746004803603602081101561095e57600080fd5b8101908080359060200190929190505050611db1565b6040518080602001828103825283818151815260200191508051906020019080838360005b838110156109b4578082015181840152602081019050610999565b50505050905090810190601f1680156109e15780820380516001836020036101000a031916815260200191505b509250505060405180910390f35b3480156109fb57600080fd5b50610a2860048036036020811015610a1257600080fd5b8101908080359060200190929190505050611e6c565b6040518080602001828103825283818151815260200191508051906020019080838360005b83811015610a68578082015181840152602081019050610a4d565b50505050905090810190601f168015610a955780820380516001836020036101000a031916815260200191505b509250505060405180910390f35b348015610aaf57600080fd5b50610ab8611f27565b6040518080602001828103825283818151815260200191508051906020019080838360005b83811015610af8578082015181840152602081019050610add565b50505050905090810190601f168015610b255780820380516001836020036101000a031916815260200191505b509250505060405180910390f35b348015610b3f57600080fd5b50610b8e60048036036040811015610b5657600080fd5b81019080803573ffffffffffffffffffffffffffffffffffffffff169060200190929190803515159060200190929190505050611fc9565b005b348015610b9c57600080fd5b50610ca060048036036080811015610bb357600080fd5b81019080803573ffffffffffffffffffffffffffffffffffffffff169060200190929190803573ffffffffffffffffffffffffffffffffffffffff1690602001909291908035906020019092919080359060200190640100000000811115610c1a57600080fd5b820183602082011115610c2c57600080fd5b80359060200191846001830284011164010000000083111715610c4e57600080fd5b91908080601f016020809104026020016040519081016040528093929190818152602001838380828437600081840152601f19601f82011690508083019250505050505050919291929050505061216e565b005b348015610cae57600080fd5b50610cdb60048036036020811015610cc557600080fd5b8101908080359060200190929190505050612225565b6040518080602001828103825283818151815260200191508051906020019080838360005b83811015610d1b578082015181840152602081019050610d00565b50505050905090810190601f168015610d485780820380516001836020036101000a031916815260200191505b509250505060405180910390f35b348015610d6257600080fd5b50610dc560048036036040811015610d7957600080fd5b81019080803573ffffffffffffffffffffffffffffffffffffffff169060200190929190803573ffffffffffffffffffffffffffffffffffffffff16906020019092919050505061237d565b604051808215151515815260200191505060405180910390f35b6000806000837bffffffffffffffffffffffffffffffffffffffffffffffffffffffff19167bffffffffffffffffffffffffffffffffffffffffffffffffffffffff1916815260200190815260200160002060009054906101000a900460ff169050919050565b606060098054600181600116156101000203166002900480601f016020809104026020016040519081016040528092919081815260200182805460018160011615610100020316600290048015610ede5780601f10610eb357610100808354040283529160200191610ede565b820191906000526020600020905b815481529060010190602001808311610ec157829003601f168201915b5050505050905090565b6000610ef382612411565b1515610f8d576040517f08c379a000000000000000000000000000000000000000000000000000000000815260040180806020018281038252602c8152602001807f4552433732313a20617070726f76656420717565727920666f72206e6f6e657881526020017f697374656e7420746f6b656e000000000000000000000000000000000000000081525060400191505060405180910390fd5b6002600083815260200190815260200160002060009054906101000a900473ffffffffffffffffffffffffffffffffffffffff169050919050565b600c602052806000526040600020600091509050806000018054600181600116156101000203166002900480601f0160208091040260200160405190810160405280929190818152602001828054600181600116156101000203166002900480156110745780601f1061104957610100808354040283529160200191611074565b820191906000526020600020905b81548152906001019060200180831161105757829003601f168201915b505050505090806001018054600181600116156101000203166002900480601f0160208091040260200160405190810160405280929190818152602001828054600181600116156101000203166002900480156111125780601f106110e757610100808354040283529160200191611112565b820191906000526020600020905b8154815290600101906020018083116110f557829003601f168201915b5050505050905082565b600061112782611b8a565b90508073ffffffffffffffffffffffffffffffffffffffff168373ffffffffffffffffffffffffffffffffffffffff16141515156111f3576040517f08c379a00000000000000000000000000000000000000000000000000000000081526004018080602001828103825260218152602001807f4552433732313a20617070726f76616c20746f2063757272656e74206f776e6581526020017f720000000000000000000000000000000000000000000000000000000000000081525060400191505060405180910390fd5b8073ffffffffffffffffffffffffffffffffffffffff163373ffffffffffffffffffffffffffffffffffffffff1614806112335750611232813361237d565b5b15156112cd576040517f08c379a00000000000000000000000000000000000000000000000000000000081526004018080602001828103825260388152602001807f4552433732313a20617070726f76652063616c6c6572206973206e6f74206f7781526020017f6e6572206e6f7220617070726f76656420666f7220616c6c000000000000000081525060400191505060405180910390fd5b826002600084815260200190815260200160002060006101000a81548173ffffffffffffffffffffffffffffffffffffffff021916908373ffffffffffffffffffffffffffffffffffffffff160217905550818373ffffffffffffffffffffffffffffffffffffffff168273ffffffffffffffffffffffffffffffffffffffff167f8c5be1e5ebec7d5bd14f71427d1e84f3dd0314c0f7b2291e5b200ac8c7c3b92560405160405180910390a4505050565b6000611389611608565b90506060600d61139f6000600d80549050612483565b8154811015156113ab57fe5b906000526020600020018054600181600116156101000203166002900480601f0160208091040260200160405190810160405280929190818152602001828054600181600116156101000203166002900480156114495780601f1061141e57610100808354040283529160200191611449565b820191906000526020600020905b81548152906001019060200180831161142c57829003601f168201915b505050505090506060600e6114646000600e80549050612483565b81548110151561147057fe5b906000526020600020018054600181600116156101000203166002900480601f01602080910402602001604051908101604052809291908181526020018280546001816001161561010002031660029004801561150e5780601f106114e35761010080835404028352916020019161150e565b820191906000526020600020905b8154815290600101906020018083116114f157829003601f168201915b50505050509050600f6040805190810160405280848152602001838152509080600181540180825580915050906001820390600052602060002090600202016000909192909190915060008201518160000190805190602001906115739291906131d9565b5060208201518160010190805190602001906115909291906131d9565b50505050604080519081016040528083815260200182815250600c600085815260200190815260200160002060008201518160000190805190602001906115d89291906131d9565b5060208201518160010190805190602001906115f59291906131d9565b5090505061160333846124db565b505050565b6000600780549050905090565b61161f33826124fc565b15156116b9576040517f08c379a00000000000000000000000000000000000000000000000000000000081526004018080602001828103825260318152602001807f4552433732313a207472616e736665722063616c6c6572206973206e6f74206f81526020017f776e6572206e6f7220617070726f76656400000000000000000000000000000081525060400191505060405180910390fd5b6116c4838383612635565b505050565b60006116d483611c97565b82101515611770576040517f08c379a000000000000000000000000000000000000000000000000000000000815260040180806020018281038252602b8152602001807f455243373231456e756d657261626c653a206f776e657220696e646578206f7581526020017f74206f6620626f756e647300000000000000000000000000000000000000000081525060400191505060405180910390fd5b600560008473ffffffffffffffffffffffffffffffffffffffff1673ffffffffffffffffffffffffffffffffffffffff168152602001908152602001600020828154811015156117bc57fe5b9060005260206000200154905092915050565b6117eb838383602060405190810160405280600081525061216e565b505050565b600f818154811015156117ff57fe5b9060005260206000209060020201600091509050806000018054600181600116156101000203166002900480601f0160208091040260200160405190810160405280929190818152602001828054600181600116156101000203166002900480156118ab5780601f10611880576101008083540402835291602001916118ab565b820191906000526020600020905b81548152906001019060200180831161188e57829003601f168201915b505050505090806001018054600181600116156101000203166002900480601f0160208091040260200160405190810160405280929190818152602001828054600181600116156101000203166002900480156119495780601f1061191e57610100808354040283529160200191611949565b820191906000526020600020905b81548152906001019060200180831161192c57829003601f168201915b5050505050905082565b606080600c6000848152602001908152602001600020600001600c6000858152602001908152602001600020600101818054600181600116156101000203166002900480601f016020809104026020016040519081016040528092919081815260200182805460018160011615610100020316600290048015611a175780601f106119ec57610100808354040283529160200191611a17565b820191906000526020600020905b8154815290600101906020018083116119fa57829003601f168201915b50505050509150808054600181600116156101000203166002900480601f016020809104026020016040519081016040528092919081815260200182805460018160011615610100020316600290048015611ab35780601f10611a8857610100808354040283529160200191611ab3565b820191906000526020600020905b815481529060010190602001808311611a9657829003601f168201915b5050505050905091509150915091565b6000611acd611608565b82101515611b69576040517f08c379a000000000000000000000000000000000000000000000000000000000815260040180806020018281038252602c8152602001807f455243373231456e756d657261626c653a20676c6f62616c20696e646578206f81526020017f7574206f6620626f756e6473000000000000000000000000000000000000000081525060400191505060405180910390fd5b600782815481101515611b7857fe5b90600052602060002001549050919050565b6000806001600084815260200190815260200160002060009054906101000a900473ffffffffffffffffffffffffffffffffffffffff169050600073ffffffffffffffffffffffffffffffffffffffff168173ffffffffffffffffffffffffffffffffffffffff1614151515611c8e576040517f08c379a00000000000000000000000000000000000000000000000000000000081526004018080602001828103825260298152602001807f4552433732313a206f776e657220717565727920666f72206e6f6e657869737481526020017f656e7420746f6b656e000000000000000000000000000000000000000000000081525060400191505060405180910390fd5b80915050919050565b60008073ffffffffffffffffffffffffffffffffffffffff168273ffffffffffffffffffffffffffffffffffffffff1614151515611d63576040517f08c379a000000000000000000000000000000000000000000000000000000000815260040180806020018281038252602a8152602001807f4552433732313a2062616c616e636520717565727920666f7220746865207a6581526020017f726f20616464726573730000000000000000000000000000000000000000000081525060400191505060405180910390fd5b611daa600360008473ffffffffffffffffffffffffffffffffffffffff1673ffffffffffffffffffffffffffffffffffffffff168152602001908152602001600020612659565b9050919050565b600e81815481101515611dc057fe5b906000526020600020016000915090508054600181600116156101000203166002900480601f016020809104026020016040519081016040528092919081815260200182805460018160011615610100020316600290048015611e645780601f10611e3957610100808354040283529160200191611e64565b820191906000526020600020905b815481529060010190602001808311611e4757829003601f168201915b505050505081565b600d81815481101515611e7b57fe5b906000526020600020016000915090508054600181600116156101000203166002900480601f016020809104026020016040519081016040528092919081815260200182805460018160011615610100020316600290048015611f1f5780601f10611ef457610100808354040283529160200191611f1f565b820191906000526020600020905b815481529060010190602001808311611f0257829003601f168201915b505050505081565b6060600a8054600181600116156101000203166002900480601f016020809104026020016040519081016040528092919081815260200182805460018160011615610100020316600290048015611fbf5780601f10611f9457610100808354040283529160200191611fbf565b820191906000526020600020905b815481529060010190602001808311611fa257829003601f168201915b5050505050905090565b3373ffffffffffffffffffffffffffffffffffffffff168273ffffffffffffffffffffffffffffffffffffffff161415151561206d576040517f08c379a00000000000000000000000000000000000000000000000000000000081526004018080602001828103825260198152602001807f4552433732313a20617070726f766520746f2063616c6c65720000000000000081525060200191505060405180910390fd5b80600460003373ffffffffffffffffffffffffffffffffffffffff1673ffffffffffffffffffffffffffffffffffffffff16815260200190815260200160002060008473ffffffffffffffffffffffffffffffffffffffff1673ffffffffffffffffffffffffffffffffffffffff16815260200190815260200160002060006101000a81548160ff0219169083151502179055508173ffffffffffffffffffffffffffffffffffffffff163373ffffffffffffffffffffffffffffffffffffffff167f17307eab39ab6107e8899845ad3d59bd9653f200f220920489ca2b5937696c3183604051808215151515815260200191505060405180910390a35050565b612179848484611615565b61218584848484612667565b151561221f576040517f08c379a00000000000000000000000000000000000000000000000000000000081526004018080602001828103825260328152602001807f4552433732313a207472616e7366657220746f206e6f6e20455243373231526581526020017f63656976657220696d706c656d656e746572000000000000000000000000000081525060400191505060405180910390fd5b50505050565b606061223082612411565b15156122ca576040517f08c379a000000000000000000000000000000000000000000000000000000000815260040180806020018281038252602f8152602001807f4552433732314d657461646174613a2055524920717565727920666f72206e6f81526020017f6e6578697374656e7420746f6b656e000000000000000000000000000000000081525060400191505060405180910390fd5b600b60008381526020019081526020016000208054600181600116156101000203166002900480601f0160208091040260200160405190810160405280929190818152602001828054600181600116156101000203166002900480156123715780601f1061234657610100808354040283529160200191612371565b820191906000526020600020905b81548152906001019060200180831161235457829003601f168201915b50505050509050919050565b6000600460008473ffffffffffffffffffffffffffffffffffffffff1673ffffffffffffffffffffffffffffffffffffffff16815260200190815260200160002060008373ffffffffffffffffffffffffffffffffffffffff1673ffffffffffffffffffffffffffffffffffffffff16815260200190815260200160002060009054906101000a900460ff16905092915050565b6000806001600084815260200190815260200160002060009054906101000a900473ffffffffffffffffffffffffffffffffffffffff169050600073ffffffffffffffffffffffffffffffffffffffff168173ffffffffffffffffffffffffffffffffffffffff161415915050919050565b6000601160008154809291906001019190505550828284016011546040516020018082815260200191505060405160208183030381529060405280519060200120600190048115156124d157fe5b0603905092915050565b6124e5828261288a565b6124ef8282612aa6565b6124f881612b6d565b5050565b600061250782612411565b15156125a1576040517f08c379a000000000000000000000000000000000000000000000000000000000815260040180806020018281038252602c8152602001807f4552433732313a206f70657261746f7220717565727920666f72206e6f6e657881526020017f697374656e7420746f6b656e000000000000000000000000000000000000000081525060400191505060405180910390fd5b60006125ac83611b8a565b90508073ffffffffffffffffffffffffffffffffffffffff168473ffffffffffffffffffffffffffffffffffffffff16148061261b57508373ffffffffffffffffffffffffffffffffffffffff1661260384610ee8565b73ffffffffffffffffffffffffffffffffffffffff16145b8061262c575061262b818561237d565b5b91505092915050565b612640838383612bb9565b61264a8382612e9e565b6126548282612aa6565b505050565b600081600001549050919050565b60006126888473ffffffffffffffffffffffffffffffffffffffff16613042565b15156126975760019050612882565b60008473ffffffffffffffffffffffffffffffffffffffff1663150b7a02338887876040518563ffffffff167c0100000000000000000000000000000000000000000000000000000000028152600401808573ffffffffffffffffffffffffffffffffffffffff1673ffffffffffffffffffffffffffffffffffffffff1681526020018473ffffffffffffffffffffffffffffffffffffffff1673ffffffffffffffffffffffffffffffffffffffff16815260200183815260200180602001828103825283818151815260200191508051906020019080838360005b8381101561278e578082015181840152602081019050612773565b50505050905090810190601f1680156127bb5780820380516001836020036101000a031916815260200191505b5095505050505050602060405180830381600087803b1580156127dd57600080fd5b505af11580156127f1573d6000803e3d6000fd5b505050506040513d602081101561280757600080fd5b8101908080519060200190929190505050905063150b7a027c0100000000000000000000000000000000000000000000000000000000027bffffffffffffffffffffffffffffffffffffffffffffffffffffffff1916817bffffffffffffffffffffffffffffffffffffffffffffffffffffffff1916149150505b949350505050565b600073ffffffffffffffffffffffffffffffffffffffff168273ffffffffffffffffffffffffffffffffffffffff161415151561292f576040517f08c379a00000000000000000000000000000000000000000000000000000000081526004018080602001828103825260208152602001807f4552433732313a206d696e7420746f20746865207a65726f206164647265737381525060200191505060405180910390fd5b61293881612411565b1515156129ad576040517f08c379a000000000000000000000000000000000000000000000000000000000815260040180806020018281038252601c8152602001807f4552433732313a20746f6b656e20616c7265616479206d696e7465640000000081525060200191505060405180910390fd5b816001600083815260200190815260200160002060006101000a81548173ffffffffffffffffffffffffffffffffffffffff021916908373ffffffffffffffffffffffffffffffffffffffff160217905550612a46600360008473ffffffffffffffffffffffffffffffffffffffff1673ffffffffffffffffffffffffffffffffffffffff168152602001908152602001600020613055565b808273ffffffffffffffffffffffffffffffffffffffff16600073ffffffffffffffffffffffffffffffffffffffff167fddf252ad1be2c89b69c2b068fc378daa952ba7f163c4a11628f55a4df523b3ef60405160405180910390a45050565b600560008373ffffffffffffffffffffffffffffffffffffffff1673ffffffffffffffffffffffffffffffffffffffff168152602001908152602001600020805490506006600083815260200190815260200160002081905550600560008373ffffffffffffffffffffffffffffffffffffffff1673ffffffffffffffffffffffffffffffffffffffff1681526020019081526020016000208190806001815401808255809150509060018203906000526020600020016000909192909190915055505050565b6007805490506008600083815260200190815260200160002081905550600781908060018154018082558091505090600182039060005260206000200160009091929091909150555050565b8273ffffffffffffffffffffffffffffffffffffffff16612bd982611b8a565b73ffffffffffffffffffffffffffffffffffffffff16141515612c8a576040517f08c379a00000000000000000000000000000000000000000000000000000000081526004018080602001828103825260298152602001807f4552433732313a207472616e73666572206f6620746f6b656e2074686174206981526020017f73206e6f74206f776e000000000000000000000000000000000000000000000081525060400191505060405180910390fd5b600073ffffffffffffffffffffffffffffffffffffffff168273ffffffffffffffffffffffffffffffffffffffff1614151515612d55576040517f08c379a00000000000000000000000000000000000000000000000000000000081526004018080602001828103825260248152602001807f4552433732313a207472616e7366657220746f20746865207a65726f2061646481526020017f726573730000000000000000000000000000000000000000000000000000000081525060400191505060405180910390fd5b612d5e8161306b565b612da5600360008573ffffffffffffffffffffffffffffffffffffffff1673ffffffffffffffffffffffffffffffffffffffff16815260200190815260200160002061312b565b612dec600360008473ffffffffffffffffffffffffffffffffffffffff1673ffffffffffffffffffffffffffffffffffffffff168152602001908152602001600020613055565b816001600083815260200190815260200160002060006101000a81548173ffffffffffffffffffffffffffffffffffffffff021916908373ffffffffffffffffffffffffffffffffffffffff160217905550808273ffffffffffffffffffffffffffffffffffffffff168473ffffffffffffffffffffffffffffffffffffffff167fddf252ad1be2c89b69c2b068fc378daa952ba7f163c4a11628f55a4df523b3ef60405160405180910390a4505050565b6000612ef66001600560008673ffffffffffffffffffffffffffffffffffffffff1673ffffffffffffffffffffffffffffffffffffffff1681526020019081526020016000208054905061314e90919063ffffffff16565b90506000600660008481526020019081526020016000205490508181141515612fe9576000600560008673ffffffffffffffffffffffffffffffffffffffff1673ffffffffffffffffffffffffffffffffffffffff16815260200190815260200160002083815481101515612f6757fe5b9060005260206000200154905080600560008773ffffffffffffffffffffffffffffffffffffffff1673ffffffffffffffffffffffffffffffffffffffff16815260200190815260200160002083815481101515612fc157fe5b9060005260206000200181905550816006600083815260200190815260200160002081905550505b600560008573ffffffffffffffffffffffffffffffffffffffff1673ffffffffffffffffffffffffffffffffffffffff16815260200190815260200160002080548091906001900361303b9190613259565b5050505050565b600080823b905060008111915050919050565b6001816000016000828254019250508190555050565b600073ffffffffffffffffffffffffffffffffffffffff166002600083815260200190815260200160002060009054906101000a900473ffffffffffffffffffffffffffffffffffffffff1673ffffffffffffffffffffffffffffffffffffffff161415156131285760006002600083815260200190815260200160002060006101000a81548173ffffffffffffffffffffffffffffffffffffffff021916908373ffffffffffffffffffffffffffffffffffffffff1602179055505b50565b6131436001826000015461314e90919063ffffffff16565b816000018190555050565b60008282111515156131c8576040517f08c379a000000000000000000000000000000000000000000000000000000000815260040180806020018281038252601e8152602001807f536166654d6174683a207375627472616374696f6e206f766572666c6f77000081525060200191505060405180910390fd5b600082840390508091505092915050565b828054600181600116156101000203166002900490600052602060002090601f016020900481019282601f1061321a57805160ff1916838001178555613248565b82800160010185558215613248579182015b8281111561324757825182559160200191906001019061322c565b5b5090506132559190613285565b5090565b8154818355818111156132805781836000526020600020918201910161327f9190613285565b5b505050565b6132a791905b808211156132a357600081600090555060010161328b565b5090565b9056fea165627a7a72305820a70cc7ee307bc4da17cc8892c88b37da0617a32234c038111edbafc0a190e2d00029",
  "source": "pragma solidity 0.5.0;\r\n\r\nimport \"./ERC721Full.sol\";\r\n\r\ncontract Character is ERC721Full {\r\n\r\n  mapping(uint256 => Hero) public tokenProperty;\r\n\r\n  struct Hero{\r\n    string hair;\r\n    string face;\r\n  }\r\n\r\n  string[] public baseHair = [\r\n    \"30020\",\r\n    \"30400\",\r\n    \"30000\",\r\n    \"31400\"\r\n  ];\r\n\r\n  string[] public baseFace = [\r\n    \"50002\",\r\n    \"50126\",\r\n    \"50006\",\r\n    \"50039\"\r\n  ];\r\n\r\n  Hero[] public characters;\r\n  mapping(string => bool) _itemExists;\r\n\r\n  uint nonce = 0;\r\n  \r\n  constructor() ERC721Full(\"Character\", \"CHARACTER\") public {       \r\n\r\n  }\r\n\r\n  function mint() public {\r\n    uint _tokenId = totalSupply();\r\n\r\n    string memory _hair = baseHair[rand(0, baseHair.length)];\r\n    string memory _face = baseFace[rand(0, baseFace.length)];\r\n\r\n    characters.push(Hero({hair: _hair, face: _face}));\r\n    tokenProperty[_tokenId] = Hero({hair: _hair, face: _face});\r\n\r\n    _mint(msg.sender, _tokenId);\r\n  }\r\n\r\n  function getTokenProperties(uint256 _tokenId) external view returns (string memory _hair, string memory _face) {\r\n      return (tokenProperty[_tokenId].hair, tokenProperty[_tokenId].face);\r\n  }\r\n\r\n  function rand(uint min, uint max) private returns (uint){\r\n    nonce++;\r\n    return uint(keccak256(abi.encodePacked(nonce)))%(min+max)-min;\r\n  }\r\n}\r\n",
  "sourcePath": "C:/Users/k/src/stormhacks/src/contracts/Character.sol",
  "compiler": {
    "name": "solc",
    "version": "0.5.0+commit.1d4f565a.Emscripten.clang"
  },
  "schemaVersion": "3.0.2",
  "updatedAt": "2021-02-21T05:44:00.185Z",
  "devdoc": {
    "methods": {
      "approve(address,uint256)": {
        "details": "Approves another address to transfer the given token ID\r The zero address indicates there is no approved address.\r There can only be one approved address per token at a given time.\r Can only be called by the token owner or an approved operator.\r",
        "params": {
          "to": "address to be approved for the given token ID\r",
          "tokenId": "uint256 ID of the token to be approved\r"
        }
      },
      "balanceOf(address)": {
        "details": "Gets the balance of the specified address.\r",
        "params": {
          "owner": "address to query the balance of\r"
        },
        "return": "uint256 representing the amount owned by the passed address\r"
      },
      "getApproved(uint256)": {
        "details": "Gets the approved address for a token ID, or zero if no address set\r Reverts if the token ID does not exist.\r",
        "params": {
          "tokenId": "uint256 ID of the token to query the approval of\r"
        },
        "return": "address currently approved for the given token ID\r"
      },
      "isApprovedForAll(address,address)": {
        "details": "Tells whether an operator is approved by a given owner.\r",
        "params": {
          "operator": "operator address which you want to query the approval of\r",
          "owner": "owner address which you want to query the approval of\r"
        },
        "return": "bool whether the given operator is approved by the given owner\r"
      },
      "name()": {
        "details": "Gets the token name.\r",
        "return": "string representing the token name\r"
      },
      "ownerOf(uint256)": {
        "details": "Gets the owner of the specified token ID.\r",
        "params": {
          "tokenId": "uint256 ID of the token to query the owner of\r"
        },
        "return": "address currently marked as the owner of the given token ID\r"
      },
      "safeTransferFrom(address,address,uint256)": {
        "details": "Safely transfers the ownership of a given token ID to another address\r If the target address is a contract, it must implement `onERC721Received`,\r which is called upon a safe transfer, and return the magic value\r `bytes4(keccak256(\"onERC721Received(address,address,uint256,bytes)\"))`; otherwise,\r the transfer is reverted.\r Requires the msg.sender to be the owner, approved, or operator\r",
        "params": {
          "from": "current owner of the token\r",
          "to": "address to receive the ownership of the given token ID\r",
          "tokenId": "uint256 ID of the token to be transferred\r"
        }
      },
      "safeTransferFrom(address,address,uint256,bytes)": {
        "details": "Safely transfers the ownership of a given token ID to another address\r If the target address is a contract, it must implement `onERC721Received`,\r which is called upon a safe transfer, and return the magic value\r `bytes4(keccak256(\"onERC721Received(address,address,uint256,bytes)\"))`; otherwise,\r the transfer is reverted.\r Requires the msg.sender to be the owner, approved, or operator\r",
        "params": {
          "_data": "bytes data to send along with a safe transfer check\r",
          "from": "current owner of the token\r",
          "to": "address to receive the ownership of the given token ID\r",
          "tokenId": "uint256 ID of the token to be transferred\r"
        }
      },
      "setApprovalForAll(address,bool)": {
        "details": "Sets or unsets the approval of a given operator\r An operator is allowed to transfer all tokens of the sender on their behalf.\r",
        "params": {
          "approved": "representing the status of the approval to be set\r",
          "to": "operator address to set the approval\r"
        }
      },
      "supportsInterface(bytes4)": {
        "details": "See `IERC165.supportsInterface`.\r      * Time complexity O(1), guaranteed to always use less than 30 000 gas.\r"
      },
      "symbol()": {
        "details": "Gets the token symbol.\r",
        "return": "string representing the token symbol\r"
      },
      "tokenByIndex(uint256)": {
        "details": "Gets the token ID at a given index of all the tokens in this contract\r Reverts if the index is greater or equal to the total number of tokens.\r",
        "params": {
          "index": "uint256 representing the index to be accessed of the tokens list\r"
        },
        "return": "uint256 token ID at the given index of the tokens list\r"
      },
      "tokenOfOwnerByIndex(address,uint256)": {
        "details": "Gets the token ID at a given index of the tokens list of the requested owner.\r",
        "params": {
          "index": "uint256 representing the index to be accessed of the requested tokens list\r",
          "owner": "address owning the tokens list to be accessed\r"
        },
        "return": "uint256 token ID at the given index of the tokens list owned by the requested address\r"
      },
      "tokenURI(uint256)": {
        "details": "Returns an URI for a given token ID.\r Throws if the token ID does not exist. May return an empty string.\r",
        "params": {
          "tokenId": "uint256 ID of the token to query\r"
        }
      },
      "totalSupply()": {
        "details": "Gets the total amount of tokens stored by the contract.\r",
        "return": "uint256 representing the total amount of tokens\r"
      },
      "transferFrom(address,address,uint256)": {
        "details": "Transfers the ownership of a given token ID to another address.\r Usage of this method is discouraged, use `safeTransferFrom` whenever possible.\r Requires the msg.sender to be the owner, approved, or operator.\r",
        "params": {
          "from": "current owner of the token\r",
          "to": "address to receive the ownership of the given token ID\r",
          "tokenId": "uint256 ID of the token to be transferred\r"
        }
      }
    }
  },
  "userdoc": {
    "methods": {}
  }
}