{
  "contractName": "Character",
  "abi": [
    {
      "constant": true,
      "inputs": [
        {
          "name": "interfaceId",
          "type": "bytes4"
        }
      ],
      "name": "supportsInterface",
      "outputs": [
        {
          "name": "",
          "type": "bool"
        }
      ],
      "payable": false,
      "stateMutability": "view",
      "type": "function",
      "signature": "0x01ffc9a7"
    },
    {
      "constant": true,
      "inputs": [],
      "name": "name",
      "outputs": [
        {
          "name": "",
          "type": "string"
        }
      ],
      "payable": false,
      "stateMutability": "view",
      "type": "function",
      "signature": "0x06fdde03"
    },
    {
      "constant": true,
      "inputs": [
        {
          "name": "tokenId",
          "type": "uint256"
        }
      ],
      "name": "getApproved",
      "outputs": [
        {
          "name": "",
          "type": "address"
        }
      ],
      "payable": false,
      "stateMutability": "view",
      "type": "function",
      "signature": "0x081812fc"
    },
    {
      "constant": true,
      "inputs": [
        {
          "name": "",
          "type": "uint256"
        }
      ],
      "name": "tokenProperty",
      "outputs": [
        {
          "name": "hair",
          "type": "string"
        },
        {
          "name": "face",
          "type": "string"
        },
        {
          "name": "attack",
          "type": "uint256"
        },
        {
          "name": "mother",
          "type": "uint256"
        },
        {
          "name": "father",
          "type": "uint256"
        }
      ],
      "payable": false,
      "stateMutability": "view",
      "type": "function",
      "signature": "0x08c243aa"
    },
    {
      "constant": false,
      "inputs": [
        {
          "name": "to",
          "type": "address"
        },
        {
          "name": "tokenId",
          "type": "uint256"
        }
      ],
      "name": "approve",
      "outputs": [],
      "payable": false,
      "stateMutability": "nonpayable",
      "type": "function",
      "signature": "0x095ea7b3"
    },
    {
      "constant": true,
      "inputs": [],
      "name": "totalSupply",
      "outputs": [
        {
          "name": "",
          "type": "uint256"
        }
      ],
      "payable": false,
      "stateMutability": "view",
      "type": "function",
      "signature": "0x18160ddd"
    },
    {
      "constant": false,
      "inputs": [
        {
          "name": "from",
          "type": "address"
        },
        {
          "name": "to",
          "type": "address"
        },
        {
          "name": "tokenId",
          "type": "uint256"
        }
      ],
      "name": "transferFrom",
      "outputs": [],
      "payable": false,
      "stateMutability": "nonpayable",
      "type": "function",
      "signature": "0x23b872dd"
    },
    {
      "constant": true,
      "inputs": [
        {
          "name": "owner",
          "type": "address"
        },
        {
          "name": "index",
          "type": "uint256"
        }
      ],
      "name": "tokenOfOwnerByIndex",
      "outputs": [
        {
          "name": "",
          "type": "uint256"
        }
      ],
      "payable": false,
      "stateMutability": "view",
      "type": "function",
      "signature": "0x2f745c59"
    },
    {
      "constant": false,
      "inputs": [
        {
          "name": "from",
          "type": "address"
        },
        {
          "name": "to",
          "type": "address"
        },
        {
          "name": "tokenId",
          "type": "uint256"
        }
      ],
      "name": "safeTransferFrom",
      "outputs": [],
      "payable": false,
      "stateMutability": "nonpayable",
      "type": "function",
      "signature": "0x42842e0e"
    },
    {
      "constant": true,
      "inputs": [
        {
          "name": "",
          "type": "uint256"
        }
      ],
      "name": "characters",
      "outputs": [
        {
          "name": "hair",
          "type": "string"
        },
        {
          "name": "face",
          "type": "string"
        },
        {
          "name": "attack",
          "type": "uint256"
        },
        {
          "name": "mother",
          "type": "uint256"
        },
        {
          "name": "father",
          "type": "uint256"
        }
      ],
      "payable": false,
      "stateMutability": "view",
      "type": "function",
      "signature": "0x4810bc59"
    },
    {
      "constant": true,
      "inputs": [
        {
          "name": "index",
          "type": "uint256"
        }
      ],
      "name": "tokenByIndex",
      "outputs": [
        {
          "name": "",
          "type": "uint256"
        }
      ],
      "payable": false,
      "stateMutability": "view",
      "type": "function",
      "signature": "0x4f6ccce7"
    },
    {
      "constant": true,
      "inputs": [
        {
          "name": "tokenId",
          "type": "uint256"
        }
      ],
      "name": "ownerOf",
      "outputs": [
        {
          "name": "",
          "type": "address"
        }
      ],
      "payable": false,
      "stateMutability": "view",
      "type": "function",
      "signature": "0x6352211e"
    },
    {
      "constant": true,
      "inputs": [
        {
          "name": "owner",
          "type": "address"
        }
      ],
      "name": "balanceOf",
      "outputs": [
        {
          "name": "",
          "type": "uint256"
        }
      ],
      "payable": false,
      "stateMutability": "view",
      "type": "function",
      "signature": "0x70a08231"
    },
    {
      "constant": true,
      "inputs": [
        {
          "name": "",
          "type": "uint256"
        }
      ],
      "name": "baseFace",
      "outputs": [
        {
          "name": "",
          "type": "string"
        }
      ],
      "payable": false,
      "stateMutability": "view",
      "type": "function",
      "signature": "0x8c6ff1bd"
    },
    {
      "constant": true,
      "inputs": [
        {
          "name": "",
          "type": "uint256"
        }
      ],
      "name": "baseHair",
      "outputs": [
        {
          "name": "",
          "type": "string"
        }
      ],
      "payable": false,
      "stateMutability": "view",
      "type": "function",
      "signature": "0x91c3d15e"
    },
    {
      "constant": true,
      "inputs": [],
      "name": "symbol",
      "outputs": [
        {
          "name": "",
          "type": "string"
        }
      ],
      "payable": false,
      "stateMutability": "view",
      "type": "function",
      "signature": "0x95d89b41"
    },
    {
      "constant": false,
      "inputs": [
        {
          "name": "to",
          "type": "address"
        },
        {
          "name": "approved",
          "type": "bool"
        }
      ],
      "name": "setApprovalForAll",
      "outputs": [],
      "payable": false,
      "stateMutability": "nonpayable",
      "type": "function",
      "signature": "0xa22cb465"
    },
    {
      "constant": false,
      "inputs": [
        {
          "name": "from",
          "type": "address"
        },
        {
          "name": "to",
          "type": "address"
        },
        {
          "name": "tokenId",
          "type": "uint256"
        },
        {
          "name": "_data",
          "type": "bytes"
        }
      ],
      "name": "safeTransferFrom",
      "outputs": [],
      "payable": false,
      "stateMutability": "nonpayable",
      "type": "function",
      "signature": "0xb88d4fde"
    },
    {
      "constant": true,
      "inputs": [
        {
          "name": "tokenId",
          "type": "uint256"
        }
      ],
      "name": "tokenURI",
      "outputs": [
        {
          "name": "",
          "type": "string"
        }
      ],
      "payable": false,
      "stateMutability": "view",
      "type": "function",
      "signature": "0xc87b56dd"
    },
    {
      "constant": true,
      "inputs": [
        {
          "name": "owner",
          "type": "address"
        },
        {
          "name": "operator",
          "type": "address"
        }
      ],
      "name": "isApprovedForAll",
      "outputs": [
        {
          "name": "",
          "type": "bool"
        }
      ],
      "payable": false,
      "stateMutability": "view",
      "type": "function",
      "signature": "0xe985e9c5"
    },
    {
      "inputs": [],
      "payable": false,
      "stateMutability": "nonpayable",
      "type": "constructor",
      "signature": "constructor"
    },
    {
      "anonymous": false,
      "inputs": [
        {
          "indexed": false,
          "name": "hairSeletion",
          "type": "uint256"
        }
      ],
      "name": "Hair",
      "type": "event",
      "signature": "0xa31ebc8b77766a961aee4eaeb4c3ef4c7bbd6dcb52f375ce1d0b3af04ee02c85"
    },
    {
      "anonymous": false,
      "inputs": [
        {
          "indexed": false,
          "name": "faceSelection",
          "type": "uint256"
        }
      ],
      "name": "Face",
      "type": "event",
      "signature": "0xb4580d3be338960a034dcab8c1d73fae09ae375dfb70059f4fa89b334ef5e7ce"
    },
    {
      "anonymous": false,
      "inputs": [
        {
          "indexed": true,
          "name": "from",
          "type": "address"
        },
        {
          "indexed": true,
          "name": "to",
          "type": "address"
        },
        {
          "indexed": true,
          "name": "tokenId",
          "type": "uint256"
        }
      ],
      "name": "Transfer",
      "type": "event",
      "signature": "0xddf252ad1be2c89b69c2b068fc378daa952ba7f163c4a11628f55a4df523b3ef"
    },
    {
      "anonymous": false,
      "inputs": [
        {
          "indexed": true,
          "name": "owner",
          "type": "address"
        },
        {
          "indexed": true,
          "name": "approved",
          "type": "address"
        },
        {
          "indexed": true,
          "name": "tokenId",
          "type": "uint256"
        }
      ],
      "name": "Approval",
      "type": "event",
      "signature": "0x8c5be1e5ebec7d5bd14f71427d1e84f3dd0314c0f7b2291e5b200ac8c7c3b925"
    },
    {
      "anonymous": false,
      "inputs": [
        {
          "indexed": true,
          "name": "owner",
          "type": "address"
        },
        {
          "indexed": true,
          "name": "operator",
          "type": "address"
        },
        {
          "indexed": false,
          "name": "approved",
          "type": "bool"
        }
      ],
      "name": "ApprovalForAll",
      "type": "event",
      "signature": "0x17307eab39ab6107e8899845ad3d59bd9653f200f220920489ca2b5937696c31"
    },
    {
      "constant": false,
      "inputs": [],
      "name": "mint",
      "outputs": [],
      "payable": false,
      "stateMutability": "nonpayable",
      "type": "function",
      "signature": "0x1249c58b"
    },
    {
      "constant": true,
      "inputs": [
        {
          "name": "_tokenId",
          "type": "uint256"
        }
      ],
      "name": "getTokenProperties",
      "outputs": [
        {
          "name": "_hair",
          "type": "string"
        },
        {
          "name": "_face",
          "type": "string"
        },
        {
          "name": "_attack",
          "type": "uint256"
        },
        {
          "name": "_mother",
          "type": "uint256"
        },
        {
          "name": "_father",
          "type": "uint256"
        }
      ],
      "payable": false,
      "stateMutability": "view",
      "type": "function",
      "signature": "0x4edea111"
    },
    {
      "constant": false,
      "inputs": [
        {
          "name": "min",
          "type": "uint256"
        },
        {
          "name": "max",
          "type": "uint256"
        }
      ],
      "name": "rand",
      "outputs": [
        {
          "name": "",
          "type": "uint256"
        }
      ],
      "payable": false,
      "stateMutability": "nonpayable",
      "type": "function",
      "signature": "0x95032b62"
    },
    {
      "constant": false,
      "inputs": [
        {
          "name": "motherid",
          "type": "uint256"
        },
        {
          "name": "fatherid",
          "type": "uint256"
        }
      ],
      "name": "createHero",
      "outputs": [
        {
          "name": "",
          "type": "uint256"
        }
      ],
      "payable": false,
      "stateMutability": "nonpayable",
      "type": "function",
      "signature": "0xc4f41131"
    },
    {
      "constant": false,
      "inputs": [
        {
          "name": "matronId",
          "type": "uint256"
        },
        {
          "name": "sireId",
          "type": "uint256"
        }
      ],
      "name": "breedHero",
      "outputs": [
        {
          "name": "",
          "type": "uint256"
        }
      ],
      "payable": true,
      "stateMutability": "payable",
      "type": "function",
      "signature": "0x51e19b37"
    }
  ],
  "bytecode": "0x60806040526080604051908101604052806040805190810160405280600581526020017f333030323000000000000000000000000000000000000000000000000000000081525081526020016040805190810160405280600581526020017f333034303000000000000000000000000000000000000000000000000000000081525081526020016040805190810160405280600581526020017f333030303000000000000000000000000000000000000000000000000000000081525081526020016040805190810160405280600581526020017f3331343030000000000000000000000000000000000000000000000000000000815250815250600d9060046200010c929190620004ee565b506080604051908101604052806040805190810160405280600581526020017f353030303200000000000000000000000000000000000000000000000000000081525081526020016040805190810160405280600581526020017f353031323600000000000000000000000000000000000000000000000000000081525081526020016040805190810160405280600581526020017f353030303600000000000000000000000000000000000000000000000000000081525081526020016040805190810160405280600581526020017f3530303339000000000000000000000000000000000000000000000000000000815250815250600e90600462000215929190620004ee565b5060006011553480156200022857600080fd5b506040805190810160405280600981526020017f43686172616374657200000000000000000000000000000000000000000000008152506040805190810160405280600981526020017f43484152414354455200000000000000000000000000000000000000000000008152508181620002d46301ffc9a77c010000000000000000000000000000000000000000000000000000000002620003c7640100000000026401000000009004565b620003116380ac58cd7c010000000000000000000000000000000000000000000000000000000002620003c7640100000000026401000000009004565b6200034e63780e9d637c010000000000000000000000000000000000000000000000000000000002620003c7640100000000026401000000009004565b81600990805190602001906200036692919062000555565b5080600a90805190602001906200037f92919062000555565b50620003bd635b5e139f7c010000000000000000000000000000000000000000000000000000000002620003c7640100000000026401000000009004565b5050505062000708565b63ffffffff7c010000000000000000000000000000000000000000000000000000000002817bffffffffffffffffffffffffffffffffffffffffffffffffffffffff19161415151562000482576040517f08c379a000000000000000000000000000000000000000000000000000000000815260040180806020018281038252601c8152602001807f4552433136353a20696e76616c696420696e746572666163652069640000000081525060200191505060405180910390fd5b6001600080837bffffffffffffffffffffffffffffffffffffffffffffffffffffffff19167bffffffffffffffffffffffffffffffffffffffffffffffffffffffff1916815260200190815260200160002060006101000a81548160ff02191690831515021790555050565b82805482825590600052602060002090810192821562000542579160200282015b828111156200054157825182908051906020019062000530929190620005dc565b50916020019190600101906200050f565b5b50905062000551919062000663565b5090565b828054600181600116156101000203166002900490600052602060002090601f016020900481019282601f106200059857805160ff1916838001178555620005c9565b82800160010185558215620005c9579182015b82811115620005c8578251825591602001919060010190620005ab565b5b509050620005d8919062000694565b5090565b828054600181600116156101000203166002900490600052602060002090601f016020900481019282601f106200061f57805160ff191683800117855562000650565b8280016001018555821562000650579182015b828111156200064f57825182559160200191906001019062000632565b5b5090506200065f919062000694565b5090565b6200069191905b808211156200068d5760008181620006839190620006bc565b506001016200066a565b5090565b90565b620006b991905b80821115620006b55760008160009055506001016200069b565b5090565b90565b50805460018160011615610100020316600290046000825580601f10620006e4575062000705565b601f01602090049060005260206000209081019062000704919062000694565b5b50565b613bce80620007186000396000f3fe608060405260043610610149576000357c0100000000000000000000000000000000000000000000000000000000900463ffffffff16806301ffc9a71461014e57806306fdde03146101c0578063081812fc1461025057806308c243aa146102cb578063095ea7b3146104005780631249c58b1461045b57806318160ddd1461047257806323b872dd1461049d5780632f745c591461051857806342842e0e146105875780634810bc59146106025780634edea111146107375780634f6ccce71461086c57806351e19b37146108bb5780636352211e1461090757806370a08231146109825780638c6ff1bd146109e757806391c3d15e14610a9b57806395032b6214610b4f57806395d89b4114610ba8578063a22cb46514610c38578063b88d4fde14610c95578063c4f4113114610da7578063c87b56dd14610e00578063e985e9c514610eb4575b600080fd5b34801561015a57600080fd5b506101a66004803603602081101561017157600080fd5b8101908080357bffffffffffffffffffffffffffffffffffffffffffffffffffffffff19169060200190929190505050610f3d565b604051808215151515815260200191505060405180910390f35b3480156101cc57600080fd5b506101d5610fa4565b6040518080602001828103825283818151815260200191508051906020019080838360005b838110156102155780820151818401526020810190506101fa565b50505050905090810190601f1680156102425780820380516001836020036101000a031916815260200191505b509250505060405180910390f35b34801561025c57600080fd5b506102896004803603602081101561027357600080fd5b8101908080359060200190929190505050611046565b604051808273ffffffffffffffffffffffffffffffffffffffff1673ffffffffffffffffffffffffffffffffffffffff16815260200191505060405180910390f35b3480156102d757600080fd5b50610304600480360360208110156102ee57600080fd5b8101908080359060200190929190505050611126565b604051808060200180602001868152602001858152602001848152602001838103835288818151815260200191508051906020019080838360005b8381101561035a57808201518184015260208101905061033f565b50505050905090810190601f1680156103875780820380516001836020036101000a031916815260200191505b50838103825287818151815260200191508051906020019080838360005b838110156103c05780820151818401526020810190506103a5565b50505050905090810190601f1680156103ed5780820380516001836020036101000a031916815260200191505b5097505050505050505060405180910390f35b34801561040c57600080fd5b506104596004803603604081101561042357600080fd5b81019080803573ffffffffffffffffffffffffffffffffffffffff1690602001909291908035906020019092919050505061128c565b005b34801561046757600080fd5b506104706114ef565b005b34801561047e57600080fd5b506104876117ef565b6040518082815260200191505060405180910390f35b3480156104a957600080fd5b50610516600480360360608110156104c057600080fd5b81019080803573ffffffffffffffffffffffffffffffffffffffff169060200190929190803573ffffffffffffffffffffffffffffffffffffffff169060200190929190803590602001909291905050506117fc565b005b34801561052457600080fd5b506105716004803603604081101561053b57600080fd5b81019080803573ffffffffffffffffffffffffffffffffffffffff169060200190929190803590602001909291905050506118b0565b6040518082815260200191505060405180910390f35b34801561059357600080fd5b50610600600480360360608110156105aa57600080fd5b81019080803573ffffffffffffffffffffffffffffffffffffffff169060200190929190803573ffffffffffffffffffffffffffffffffffffffff169060200190929190803590602001909291905050506119b6565b005b34801561060e57600080fd5b5061063b6004803603602081101561062557600080fd5b81019080803590602001909291905050506119d7565b604051808060200180602001868152602001858152602001848152602001838103835288818151815260200191508051906020019080838360005b83811015610691578082015181840152602081019050610676565b50505050905090810190601f1680156106be5780820380516001836020036101000a031916815260200191505b50838103825287818151815260200191508051906020019080838360005b838110156106f75780820151818401526020810190506106dc565b50505050905090810190601f1680156107245780820380516001836020036101000a031916815260200191505b5097505050505050505060405180910390f35b34801561074357600080fd5b506107706004803603602081101561075a57600080fd5b8101908080359060200190929190505050611b4c565b604051808060200180602001868152602001858152602001848152602001838103835288818151815260200191508051906020019080838360005b838110156107c65780820151818401526020810190506107ab565b50505050905090810190601f1680156107f35780820380516001836020036101000a031916815260200191505b50838103825287818151815260200191508051906020019080838360005b8381101561082c578082015181840152602081019050610811565b50505050905090810190601f1680156108595780820380516001836020036101000a031916815260200191505b5097505050505050505060405180910390f35b34801561087857600080fd5b506108a56004803603602081101561088f57600080fd5b8101908080359060200190929190505050611d10565b6040518082815260200191505060405180910390f35b6108f1600480360360408110156108d157600080fd5b810190808035906020019092919080359060200190929190505050611dd7565b6040518082815260200191505060405180910390f35b34801561091357600080fd5b506109406004803603602081101561092a57600080fd5b8101908080359060200190929190505050611e00565b604051808273ffffffffffffffffffffffffffffffffffffffff1673ffffffffffffffffffffffffffffffffffffffff16815260200191505060405180910390f35b34801561098e57600080fd5b506109d1600480360360208110156109a557600080fd5b81019080803573ffffffffffffffffffffffffffffffffffffffff169060200190929190505050611f0d565b6040518082815260200191505060405180910390f35b3480156109f357600080fd5b50610a2060048036036020811015610a0a57600080fd5b8101908080359060200190929190505050612027565b6040518080602001828103825283818151815260200191508051906020019080838360005b83811015610a60578082015181840152602081019050610a45565b50505050905090810190601f168015610a8d5780820380516001836020036101000a031916815260200191505b509250505060405180910390f35b348015610aa757600080fd5b50610ad460048036036020811015610abe57600080fd5b81019080803590602001909291905050506120e2565b6040518080602001828103825283818151815260200191508051906020019080838360005b83811015610b14578082015181840152602081019050610af9565b50505050905090810190601f168015610b415780820380516001836020036101000a031916815260200191505b509250505060405180910390f35b348015610b5b57600080fd5b50610b9260048036036040811015610b7257600080fd5b81019080803590602001909291908035906020019092919050505061219d565b6040518082815260200191505060405180910390f35b348015610bb457600080fd5b50610bbd6121f5565b6040518080602001828103825283818151815260200191508051906020019080838360005b83811015610bfd578082015181840152602081019050610be2565b50505050905090810190601f168015610c2a5780820380516001836020036101000a031916815260200191505b509250505060405180910390f35b348015610c4457600080fd5b50610c9360048036036040811015610c5b57600080fd5b81019080803573ffffffffffffffffffffffffffffffffffffffff169060200190929190803515159060200190929190505050612297565b005b348015610ca157600080fd5b50610da560048036036080811015610cb857600080fd5b81019080803573ffffffffffffffffffffffffffffffffffffffff169060200190929190803573ffffffffffffffffffffffffffffffffffffffff1690602001909291908035906020019092919080359060200190640100000000811115610d1f57600080fd5b820183602082011115610d3157600080fd5b80359060200191846001830284011164010000000083111715610d5357600080fd5b91908080601f016020809104026020016040519081016040528093929190818152602001838380828437600081840152601f19601f82011690508083019250505050505050919291929050505061243c565b005b348015610db357600080fd5b50610dea60048036036040811015610dca57600080fd5b8101908080359060200190929190803590602001909291905050506124f3565b6040518082815260200191505060405180910390f35b348015610e0c57600080fd5b50610e3960048036036020811015610e2357600080fd5b8101908080359060200190929190505050612a1c565b6040518080602001828103825283818151815260200191508051906020019080838360005b83811015610e79578082015181840152602081019050610e5e565b50505050905090810190601f168015610ea65780820380516001836020036101000a031916815260200191505b509250505060405180910390f35b348015610ec057600080fd5b50610f2360048036036040811015610ed757600080fd5b81019080803573ffffffffffffffffffffffffffffffffffffffff169060200190929190803573ffffffffffffffffffffffffffffffffffffffff169060200190929190505050612b74565b604051808215151515815260200191505060405180910390f35b6000806000837bffffffffffffffffffffffffffffffffffffffffffffffffffffffff19167bffffffffffffffffffffffffffffffffffffffffffffffffffffffff1916815260200190815260200160002060009054906101000a900460ff169050919050565b606060098054600181600116156101000203166002900480601f01602080910402602001604051908101604052809291908181526020018280546001816001161561010002031660029004801561103c5780601f106110115761010080835404028352916020019161103c565b820191906000526020600020905b81548152906001019060200180831161101f57829003601f168201915b5050505050905090565b600061105182612c08565b15156110eb576040517f08c379a000000000000000000000000000000000000000000000000000000000815260040180806020018281038252602c8152602001807f4552433732313a20617070726f76656420717565727920666f72206e6f6e657881526020017f697374656e7420746f6b656e000000000000000000000000000000000000000081525060400191505060405180910390fd5b6002600083815260200190815260200160002060009054906101000a900473ffffffffffffffffffffffffffffffffffffffff169050919050565b600c602052806000526040600020600091509050806000018054600181600116156101000203166002900480601f0160208091040260200160405190810160405280929190818152602001828054600181600116156101000203166002900480156111d25780601f106111a7576101008083540402835291602001916111d2565b820191906000526020600020905b8154815290600101906020018083116111b557829003601f168201915b505050505090806001018054600181600116156101000203166002900480601f0160208091040260200160405190810160405280929190818152602001828054600181600116156101000203166002900480156112705780601f1061124557610100808354040283529160200191611270565b820191906000526020600020905b81548152906001019060200180831161125357829003601f168201915b5050505050908060020154908060030154908060040154905085565b600061129782611e00565b90508073ffffffffffffffffffffffffffffffffffffffff168373ffffffffffffffffffffffffffffffffffffffff1614151515611363576040517f08c379a00000000000000000000000000000000000000000000000000000000081526004018080602001828103825260218152602001807f4552433732313a20617070726f76616c20746f2063757272656e74206f776e6581526020017f720000000000000000000000000000000000000000000000000000000000000081525060400191505060405180910390fd5b8073ffffffffffffffffffffffffffffffffffffffff163373ffffffffffffffffffffffffffffffffffffffff1614806113a357506113a28133612b74565b5b151561143d576040517f08c379a00000000000000000000000000000000000000000000000000000000081526004018080602001828103825260388152602001807f4552433732313a20617070726f76652063616c6c6572206973206e6f74206f7781526020017f6e6572206e6f7220617070726f76656420666f7220616c6c000000000000000081525060400191505060405180910390fd5b826002600084815260200190815260200160002060006101000a81548173ffffffffffffffffffffffffffffffffffffffff021916908373ffffffffffffffffffffffffffffffffffffffff160217905550818373ffffffffffffffffffffffffffffffffffffffff168273ffffffffffffffffffffffffffffffffffffffff167f8c5be1e5ebec7d5bd14f71427d1e84f3dd0314c0f7b2291e5b200ac8c7c3b92560405160405180910390a4505050565b60006114f96117ef565b90506060600d61150f6000600d8054905061219d565b81548110151561151b57fe5b906000526020600020018054600181600116156101000203166002900480601f0160208091040260200160405190810160405280929190818152602001828054600181600116156101000203166002900480156115b95780601f1061158e576101008083540402835291602001916115b9565b820191906000526020600020905b81548152906001019060200180831161159c57829003601f168201915b505050505090506060600e6115d46000600e8054905061219d565b8154811015156115e057fe5b906000526020600020018054600181600116156101000203166002900480601f01602080910402602001604051908101604052809291908181526020018280546001816001161561010002031660029004801561167e5780601f106116535761010080835404028352916020019161167e565b820191906000526020600020905b81548152906001019060200180831161166157829003601f168201915b5050505050905060006116936000606461219d565b9050600f60a060405190810160405280858152602001848152602001838152602001600081526020016000815250908060018154018082558091505090600182039060005260206000209060050201600090919290919091506000820151816000019080519060200190611708929190613ad1565b506020820151816001019080519060200190611725929190613ad1565b5060408201518160020155606082015181600301556080820151816004015550505060a060405190810160405280848152602001838152602001828152602001600081526020016000815250600c600086815260200190815260200160002060008201518160000190805190602001906117a0929190613ad1565b5060208201518160010190805190602001906117bd929190613ad1565b506040820151816002015560608201518160030155608082015181600401559050506117e93385612c7a565b50505050565b6000600780549050905090565b6118063382612c9b565b15156118a0576040517f08c379a00000000000000000000000000000000000000000000000000000000081526004018080602001828103825260318152602001807f4552433732313a207472616e736665722063616c6c6572206973206e6f74206f81526020017f776e6572206e6f7220617070726f76656400000000000000000000000000000081525060400191505060405180910390fd5b6118ab838383612dd4565b505050565b60006118bb83611f0d565b82101515611957576040517f08c379a000000000000000000000000000000000000000000000000000000000815260040180806020018281038252602b8152602001807f455243373231456e756d657261626c653a206f776e657220696e646578206f7581526020017f74206f6620626f756e647300000000000000000000000000000000000000000081525060400191505060405180910390fd5b600560008473ffffffffffffffffffffffffffffffffffffffff1673ffffffffffffffffffffffffffffffffffffffff168152602001908152602001600020828154811015156119a357fe5b9060005260206000200154905092915050565b6119d2838383602060405190810160405280600081525061243c565b505050565b600f818154811015156119e657fe5b9060005260206000209060050201600091509050806000018054600181600116156101000203166002900480601f016020809104026020016040519081016040528092919081815260200182805460018160011615610100020316600290048015611a925780601f10611a6757610100808354040283529160200191611a92565b820191906000526020600020905b815481529060010190602001808311611a7557829003601f168201915b505050505090806001018054600181600116156101000203166002900480601f016020809104026020016040519081016040528092919081815260200182805460018160011615610100020316600290048015611b305780601f10611b0557610100808354040283529160200191611b30565b820191906000526020600020905b815481529060010190602001808311611b1357829003601f168201915b5050505050908060020154908060030154908060040154905085565b6060806000806000600c6000878152602001908152602001600020600001600c6000888152602001908152602001600020600101600c600089815260200190815260200160002060020154600c60008a815260200190815260200160002060030154600c60008b815260200190815260200160002060040154848054600181600116156101000203166002900480601f016020809104026020016040519081016040528092919081815260200182805460018160011615610100020316600290048015611c5a5780601f10611c2f57610100808354040283529160200191611c5a565b820191906000526020600020905b815481529060010190602001808311611c3d57829003601f168201915b50505050509450838054600181600116156101000203166002900480601f016020809104026020016040519081016040528092919081815260200182805460018160011615610100020316600290048015611cf65780601f10611ccb57610100808354040283529160200191611cf6565b820191906000526020600020905b815481529060010190602001808311611cd957829003601f168201915b505050505093509450945094509450945091939590929450565b6000611d1a6117ef565b82101515611db6576040517f08c379a000000000000000000000000000000000000000000000000000000000815260040180806020018281038252602c8152602001807f455243373231456e756d657261626c653a20676c6f62616c20696e646578206f81526020017f7574206f6620626f756e6473000000000000000000000000000000000000000081525060400191505060405180910390fd5b600782815481101515611dc557fe5b90600052602060002001549050919050565b600066b1a2bc2ec5000034141515611dee57600080fd5b611df883836124f3565b905092915050565b6000806001600084815260200190815260200160002060009054906101000a900473ffffffffffffffffffffffffffffffffffffffff169050600073ffffffffffffffffffffffffffffffffffffffff168173ffffffffffffffffffffffffffffffffffffffff1614151515611f04576040517f08c379a00000000000000000000000000000000000000000000000000000000081526004018080602001828103825260298152602001807f4552433732313a206f776e657220717565727920666f72206e6f6e657869737481526020017f656e7420746f6b656e000000000000000000000000000000000000000000000081525060400191505060405180910390fd5b80915050919050565b60008073ffffffffffffffffffffffffffffffffffffffff168273ffffffffffffffffffffffffffffffffffffffff1614151515611fd9576040517f08c379a000000000000000000000000000000000000000000000000000000000815260040180806020018281038252602a8152602001807f4552433732313a2062616c616e636520717565727920666f7220746865207a6581526020017f726f20616464726573730000000000000000000000000000000000000000000081525060400191505060405180910390fd5b612020600360008473ffffffffffffffffffffffffffffffffffffffff1673ffffffffffffffffffffffffffffffffffffffff168152602001908152602001600020612df8565b9050919050565b600e8181548110151561203657fe5b906000526020600020016000915090508054600181600116156101000203166002900480601f0160208091040260200160405190810160405280929190818152602001828054600181600116156101000203166002900480156120da5780601f106120af576101008083540402835291602001916120da565b820191906000526020600020905b8154815290600101906020018083116120bd57829003601f168201915b505050505081565b600d818154811015156120f157fe5b906000526020600020016000915090508054600181600116156101000203166002900480601f0160208091040260200160405190810160405280929190818152602001828054600181600116156101000203166002900480156121955780601f1061216a57610100808354040283529160200191612195565b820191906000526020600020905b81548152906001019060200180831161217857829003601f168201915b505050505081565b6000601160008154809291906001019190505550828284016011546040516020018082815260200191505060405160208183030381529060405280519060200120600190048115156121eb57fe5b0603905092915050565b6060600a8054600181600116156101000203166002900480601f01602080910402602001604051908101604052809291908181526020018280546001816001161561010002031660029004801561228d5780601f106122625761010080835404028352916020019161228d565b820191906000526020600020905b81548152906001019060200180831161227057829003601f168201915b5050505050905090565b3373ffffffffffffffffffffffffffffffffffffffff168273ffffffffffffffffffffffffffffffffffffffff161415151561233b576040517f08c379a00000000000000000000000000000000000000000000000000000000081526004018080602001828103825260198152602001807f4552433732313a20617070726f766520746f2063616c6c65720000000000000081525060200191505060405180910390fd5b80600460003373ffffffffffffffffffffffffffffffffffffffff1673ffffffffffffffffffffffffffffffffffffffff16815260200190815260200160002060008473ffffffffffffffffffffffffffffffffffffffff1673ffffffffffffffffffffffffffffffffffffffff16815260200190815260200160002060006101000a81548160ff0219169083151502179055508173ffffffffffffffffffffffffffffffffffffffff163373ffffffffffffffffffffffffffffffffffffffff167f17307eab39ab6107e8899845ad3d59bd9653f200f220920489ca2b5937696c3183604051808215151515815260200191505060405180910390a35050565b6124478484846117fc565b61245384848484612e06565b15156124ed576040517f08c379a00000000000000000000000000000000000000000000000000000000081526004018080602001828103825260328152602001807f4552433732313a207472616e7366657220746f206e6f6e20455243373231526581526020017f63656976657220696d706c656d656e746572000000000000000000000000000081525060400191505060405180910390fd5b50505050565b6000806124fe6117ef565b905060608060006125116000606461219d565b905060006125216000606461219d565b905060006125316000606461219d565b9050816000111580156125455750601e8211155b1561260057600c60008a81526020019081526020016000206000018054600181600116156101000203166002900480601f0160208091040260200160405190810160405280929190818152602001828054600181600116156101000203166002900480156125f45780601f106125c9576101008083540402835291602001916125f4565b820191906000526020600020905b8154815290600101906020018083116125d757829003601f168201915b5050505050945061271d565b81601f111580156126125750603c8211155b156126cd57600c60008981526020019081526020016000206000018054600181600116156101000203166002900480601f0160208091040260200160405190810160405280929190818152602001828054600181600116156101000203166002900480156126c15780601f10612696576101008083540402835291602001916126c1565b820191906000526020600020905b8154815290600101906020018083116126a457829003601f168201915b5050505050945061271c565b60006126db6000606461219d565b9050600a818115156126e957fe5b049050600a8102905060006127006000600761219d565b905080820191506175308201915061271782613029565b965050505b5b602d8110156127dc57600c60008a81526020019081526020016000206001018054600181600116156101000203166002900480601f0160208091040260200160405190810160405280929190818152602001828054600181600116156101000203166002900480156127d05780601f106127a5576101008083540402835291602001916127d0565b820191906000526020600020905b8154815290600101906020018083116127b357829003601f168201915b505050505093506128c0565b604681101561289b57600c60008981526020019081526020016000206001018054600181600116156101000203166002900480601f01602080910402602001604051908101604052809291908181526020018280546001816001161561010002031660029004801561288f5780601f106128645761010080835404028352916020019161288f565b820191906000526020600020905b81548152906001019060200180831161287257829003601f168201915b505050505093506128bf565b60006128a96000606461219d565b9050614e20810190506128bb81613029565b9450505b5b600f60a0604051908101604052808781526020018681526020018581526020018b81526020018a815250908060018154018082558091505090600182039060005260206000209060050201600090919290919091506000820151816000019080519060200190612931929190613ad1565b50602082015181600101908051906020019061294e929190613ad1565b5060408201518160020155606082015181600301556080820151816004015550505060a0604051908101604052808681526020018581526020018481526020018a815260200189815250600c600088815260200190815260200160002060008201518160000190805190602001906129c7929190613ad1565b5060208201518160010190805190602001906129e4929190613ad1565b50604082015181600201556060820151816003015560808201518160040155905050612a103387612c7a565b50505050505092915050565b6060612a2782612c08565b1515612ac1576040517f08c379a000000000000000000000000000000000000000000000000000000000815260040180806020018281038252602f8152602001807f4552433732314d657461646174613a2055524920717565727920666f72206e6f81526020017f6e6578697374656e7420746f6b656e000000000000000000000000000000000081525060400191505060405180910390fd5b600b60008381526020019081526020016000208054600181600116156101000203166002900480601f016020809104026020016040519081016040528092919081815260200182805460018160011615610100020316600290048015612b685780601f10612b3d57610100808354040283529160200191612b68565b820191906000526020600020905b815481529060010190602001808311612b4b57829003601f168201915b50505050509050919050565b6000600460008473ffffffffffffffffffffffffffffffffffffffff1673ffffffffffffffffffffffffffffffffffffffff16815260200190815260200160002060008373ffffffffffffffffffffffffffffffffffffffff1673ffffffffffffffffffffffffffffffffffffffff16815260200190815260200160002060009054906101000a900460ff16905092915050565b6000806001600084815260200190815260200160002060009054906101000a900473ffffffffffffffffffffffffffffffffffffffff169050600073ffffffffffffffffffffffffffffffffffffffff168173ffffffffffffffffffffffffffffffffffffffff161415915050919050565b612c848282613182565b612c8e828261339e565b612c9781613465565b5050565b6000612ca682612c08565b1515612d40576040517f08c379a000000000000000000000000000000000000000000000000000000000815260040180806020018281038252602c8152602001807f4552433732313a206f70657261746f7220717565727920666f72206e6f6e657881526020017f697374656e7420746f6b656e000000000000000000000000000000000000000081525060400191505060405180910390fd5b6000612d4b83611e00565b90508073ffffffffffffffffffffffffffffffffffffffff168473ffffffffffffffffffffffffffffffffffffffff161480612dba57508373ffffffffffffffffffffffffffffffffffffffff16612da284611046565b73ffffffffffffffffffffffffffffffffffffffff16145b80612dcb5750612dca8185612b74565b5b91505092915050565b612ddf8383836134b1565b612de98382613796565b612df3828261339e565b505050565b600081600001549050919050565b6000612e278473ffffffffffffffffffffffffffffffffffffffff1661393a565b1515612e365760019050613021565b60008473ffffffffffffffffffffffffffffffffffffffff1663150b7a02338887876040518563ffffffff167c0100000000000000000000000000000000000000000000000000000000028152600401808573ffffffffffffffffffffffffffffffffffffffff1673ffffffffffffffffffffffffffffffffffffffff1681526020018473ffffffffffffffffffffffffffffffffffffffff1673ffffffffffffffffffffffffffffffffffffffff16815260200183815260200180602001828103825283818151815260200191508051906020019080838360005b83811015612f2d578082015181840152602081019050612f12565b50505050905090810190601f168015612f5a5780820380516001836020036101000a031916815260200191505b5095505050505050602060405180830381600087803b158015612f7c57600080fd5b505af1158015612f90573d6000803e3d6000fd5b505050506040513d6020811015612fa657600080fd5b8101908080519060200190929190505050905063150b7a027c0100000000000000000000000000000000000000000000000000000000027bffffffffffffffffffffffffffffffffffffffffffffffffffffffff1916817bffffffffffffffffffffffffffffffffffffffffffffffffffffffff1916149150505b949350505050565b60606000821415613071576040805190810160405280600181526020017f3000000000000000000000000000000000000000000000000000000000000000815250905061317d565b600082905060005b60008214151561309f578080600101915050600a8281151561309757fe5b049150613079565b6060816040519080825280601f01601f1916602001820160405280156130d45781602001600182028038833980820191505090505b50905060006001830390505b60008614151561317557600a868115156130f657fe5b066030017f01000000000000000000000000000000000000000000000000000000000000000282828060019003935081518110151561313157fe5b9060200101907effffffffffffffffffffffffffffffffffffffffffffffffffffffffffffff1916908160001a905350600a8681151561316d57fe5b0495506130e0565b819450505050505b919050565b600073ffffffffffffffffffffffffffffffffffffffff168273ffffffffffffffffffffffffffffffffffffffff1614151515613227576040517f08c379a00000000000000000000000000000000000000000000000000000000081526004018080602001828103825260208152602001807f4552433732313a206d696e7420746f20746865207a65726f206164647265737381525060200191505060405180910390fd5b61323081612c08565b1515156132a5576040517f08c379a000000000000000000000000000000000000000000000000000000000815260040180806020018281038252601c8152602001807f4552433732313a20746f6b656e20616c7265616479206d696e7465640000000081525060200191505060405180910390fd5b816001600083815260200190815260200160002060006101000a81548173ffffffffffffffffffffffffffffffffffffffff021916908373ffffffffffffffffffffffffffffffffffffffff16021790555061333e600360008473ffffffffffffffffffffffffffffffffffffffff1673ffffffffffffffffffffffffffffffffffffffff16815260200190815260200160002061394d565b808273ffffffffffffffffffffffffffffffffffffffff16600073ffffffffffffffffffffffffffffffffffffffff167fddf252ad1be2c89b69c2b068fc378daa952ba7f163c4a11628f55a4df523b3ef60405160405180910390a45050565b600560008373ffffffffffffffffffffffffffffffffffffffff1673ffffffffffffffffffffffffffffffffffffffff168152602001908152602001600020805490506006600083815260200190815260200160002081905550600560008373ffffffffffffffffffffffffffffffffffffffff1673ffffffffffffffffffffffffffffffffffffffff1681526020019081526020016000208190806001815401808255809150509060018203906000526020600020016000909192909190915055505050565b6007805490506008600083815260200190815260200160002081905550600781908060018154018082558091505090600182039060005260206000200160009091929091909150555050565b8273ffffffffffffffffffffffffffffffffffffffff166134d182611e00565b73ffffffffffffffffffffffffffffffffffffffff16141515613582576040517f08c379a00000000000000000000000000000000000000000000000000000000081526004018080602001828103825260298152602001807f4552433732313a207472616e73666572206f6620746f6b656e2074686174206981526020017f73206e6f74206f776e000000000000000000000000000000000000000000000081525060400191505060405180910390fd5b600073ffffffffffffffffffffffffffffffffffffffff168273ffffffffffffffffffffffffffffffffffffffff161415151561364d576040517f08c379a00000000000000000000000000000000000000000000000000000000081526004018080602001828103825260248152602001807f4552433732313a207472616e7366657220746f20746865207a65726f2061646481526020017f726573730000000000000000000000000000000000000000000000000000000081525060400191505060405180910390fd5b61365681613963565b61369d600360008573ffffffffffffffffffffffffffffffffffffffff1673ffffffffffffffffffffffffffffffffffffffff168152602001908152602001600020613a23565b6136e4600360008473ffffffffffffffffffffffffffffffffffffffff1673ffffffffffffffffffffffffffffffffffffffff16815260200190815260200160002061394d565b816001600083815260200190815260200160002060006101000a81548173ffffffffffffffffffffffffffffffffffffffff021916908373ffffffffffffffffffffffffffffffffffffffff160217905550808273ffffffffffffffffffffffffffffffffffffffff168473ffffffffffffffffffffffffffffffffffffffff167fddf252ad1be2c89b69c2b068fc378daa952ba7f163c4a11628f55a4df523b3ef60405160405180910390a4505050565b60006137ee6001600560008673ffffffffffffffffffffffffffffffffffffffff1673ffffffffffffffffffffffffffffffffffffffff16815260200190815260200160002080549050613a4690919063ffffffff16565b905060006006600084815260200190815260200160002054905081811415156138e1576000600560008673ffffffffffffffffffffffffffffffffffffffff1673ffffffffffffffffffffffffffffffffffffffff1681526020019081526020016000208381548110151561385f57fe5b9060005260206000200154905080600560008773ffffffffffffffffffffffffffffffffffffffff1673ffffffffffffffffffffffffffffffffffffffff168152602001908152602001600020838154811015156138b957fe5b9060005260206000200181905550816006600083815260200190815260200160002081905550505b600560008573ffffffffffffffffffffffffffffffffffffffff1673ffffffffffffffffffffffffffffffffffffffff1681526020019081526020016000208054809190600190036139339190613b51565b5050505050565b600080823b905060008111915050919050565b6001816000016000828254019250508190555050565b600073ffffffffffffffffffffffffffffffffffffffff166002600083815260200190815260200160002060009054906101000a900473ffffffffffffffffffffffffffffffffffffffff1673ffffffffffffffffffffffffffffffffffffffff16141515613a205760006002600083815260200190815260200160002060006101000a81548173ffffffffffffffffffffffffffffffffffffffff021916908373ffffffffffffffffffffffffffffffffffffffff1602179055505b50565b613a3b60018260000154613a4690919063ffffffff16565b816000018190555050565b6000828211151515613ac0576040517f08c379a000000000000000000000000000000000000000000000000000000000815260040180806020018281038252601e8152602001807f536166654d6174683a207375627472616374696f6e206f766572666c6f77000081525060200191505060405180910390fd5b600082840390508091505092915050565b828054600181600116156101000203166002900490600052602060002090601f016020900481019282601f10613b1257805160ff1916838001178555613b40565b82800160010185558215613b40579182015b82811115613b3f578251825591602001919060010190613b24565b5b509050613b4d9190613b7d565b5090565b815481835581811115613b7857818360005260206000209182019101613b779190613b7d565b5b505050565b613b9f91905b80821115613b9b576000816000905550600101613b83565b5090565b9056fea165627a7a72305820985d7540bc7593ae3ffc9bb901886cdce388e2cc53c391d02aa320ba8f082d620029",
  "source": "pragma solidity 0.5.0;\r\n\r\nimport \"./ERC721Full.sol\";\r\n\r\ncontract Character is ERC721Full {\r\n\r\n  mapping(uint256 => Hero) public tokenProperty;\r\n\r\n  struct Hero{\r\n    string hair;\r\n    string face;\r\n    uint attack;\r\n    uint mother;\r\n    uint father;\r\n  }\r\n\r\n  string[] public baseHair = [\r\n    \"30020\",\r\n    \"30400\",\r\n    \"30000\",\r\n    \"31400\"\r\n  ];\r\n\r\n  string[] public baseFace = [\r\n    \"50002\",\r\n    \"50126\",\r\n    \"50006\",\r\n    \"50039\"\r\n  ];\r\n\r\n  Hero[] public characters;\r\n  mapping(string => bool) _itemExists;\r\n\r\n  uint nonce = 0;\r\n  \r\n  constructor() ERC721Full(\"Character\", \"CHARACTER\") public {       \r\n\r\n  }\r\n\r\n  function mint() public {\r\n    uint _tokenId = totalSupply();\r\n\r\n    string memory _hair = baseHair[rand(0, baseHair.length)];\r\n    // uint _hair = 31400;\r\n    string memory _face = baseFace[rand(0, baseFace.length)];\r\n    uint _attack = rand(0,100);\r\n\r\n\r\n    characters.push(Hero({hair: _hair, face: _face, attack: _attack, mother: 0, father : 0}));\r\n    tokenProperty[_tokenId] = Hero({hair: _hair, face: _face, attack: _attack, mother: 0, father: 0}); \r\n\r\n    _mint(msg.sender, _tokenId);\r\n  }\r\n\r\n  function getTokenProperties(uint256 _tokenId) external view returns (string memory _hair, string memory _face,\r\n   uint _attack, uint _mother, uint _father) {\r\n      return (tokenProperty[_tokenId].hair, tokenProperty[_tokenId].face, tokenProperty[_tokenId].attack,\r\n      tokenProperty[_tokenId].mother, tokenProperty[_tokenId].father);\r\n  }\r\n\r\n  function rand(uint min, uint max) public returns (uint){\r\n    nonce++;\r\n    return uint(keccak256(abi.encodePacked(nonce)))%(min+max)-min;\r\n  }\r\n\r\n  /** function to create a new character with parents\r\n   *\r\n   *\r\n   */\r\n  function createHero(uint256 motherid, uint256 fatherid) public returns (uint256) {\r\n\r\n    uint _tokenId = totalSupply();\r\n\r\n    string memory _hair;\r\n    string memory _face;\r\n\r\n    uint _attack = rand(0,100);\r\n    uint hairSelection = rand(0,100);\r\n    uint faceSelection = rand(0,100);\r\n\r\n\r\n    if(0 <= hairSelection && hairSelection <= 30) {\r\n      _hair = tokenProperty[motherid].hair;\r\n    } else if(31 <= hairSelection && hairSelection  <= 60) {\r\n      _hair = tokenProperty[fatherid].hair;\r\n    } else {\r\n      uint mutatedHair = rand(0, 100);\r\n      mutatedHair = mutatedHair / 10;\r\n      mutatedHair = mutatedHair * 10;\r\n      uint mutation = rand(0,7);\r\n      mutatedHair += mutation;\r\n      mutatedHair += 30000;\r\n\r\n\r\n      // mutatedHair = mutatedHair / 10;\r\n      // uint randomInt = rand(0, 7);\r\n      // mutatedHair = mutatedHair * 10;\r\n      // mutatedHair = mutatedHair + randomInt;\r\n\r\n      _hair = uint2str(mutatedHair);\r\n      \r\n    }\r\n    \r\n\r\n    if(faceSelection < 45) {\r\n      _face = tokenProperty[motherid].face;\r\n    // } else if(46 <= faceSelection && faceSelection <= 90) {\r\n    //   _face = tokenProperty[fatherid].face;\r\n    } else if(faceSelection < 70){\r\n      // uint mutatedFace = rand(20000,20100);\r\n      // _face = uint2str(mutatedFace);\r\n      _face = tokenProperty[fatherid].face;\r\n    } else {\r\n      uint mutatedFace = rand(0,100);\r\n      mutatedFace += 20000;\r\n      _face = uint2str(mutatedFace);\r\n\r\n    }\r\n    \r\n    // _face = tokenProperty[fatherid].face;    \r\n\r\n    characters.push(Hero({hair: _hair, face: _face, attack: _attack, mother: motherid, father : fatherid}));\r\n    tokenProperty[_tokenId] = Hero({hair: _hair, face: _face, attack: _attack, mother: motherid, father: fatherid}); \r\n\r\n    _mint(msg.sender, _tokenId);\r\n  }\r\n\r\n\r\n  /** @dev Function to breed 2 vipers to create a new one\r\n    * @param matronId ID of new viper's matron (one parent)\r\n    * @param sireId ID of new viper's sire (other parent)\r\n    * @return The new viper's ID\r\n    */\r\n  function breedHero(uint256 matronId, uint256 sireId) external payable returns (uint256) {\r\n      require(msg.value == 0.05 ether);\r\n      return createHero(matronId, sireId);\r\n  }\r\n\r\n\r\n  function uint2str(uint _i) internal pure returns (string memory _uintAsString) {\r\n    if (_i == 0) {\r\n        return \"0\";\r\n    }\r\n    uint j = _i;\r\n    uint len;\r\n    while (j != 0) {\r\n        len++;\r\n        j /= 10;\r\n    }\r\n    bytes memory bstr = new bytes(len);\r\n    uint k = len - 1;\r\n    while (_i != 0) {\r\n        bstr[k--] = byte(uint8(48 + _i % 10));\r\n        _i /= 10;\r\n    }\r\n    return string(bstr);\r\n}\r\n\r\nevent Hair(uint256 hairSeletion);\r\nevent Face(uint256 faceSelection);\r\n\r\n\r\n\r\n}\r\n",
  "sourcePath": "C:/Users/willi/OneDrive//stormhacks/maplecrypto/src/contracts/Character.sol",
  "compiler": {
    "name": "solc",
    "version": "0.5.0+commit.1d4f565a.Emscripten.clang"
  },
  "schemaVersion": "3.0.2",
  "updatedAt": "2021-02-21T10:11:25.370Z",
  "devdoc": {
    "methods": {
      "approve(address,uint256)": {
        "details": "Approves another address to transfer the given token ID\r The zero address indicates there is no approved address.\r There can only be one approved address per token at a given time.\r Can only be called by the token owner or an approved operator.\r",
        "params": {
          "to": "address to be approved for the given token ID\r",
          "tokenId": "uint256 ID of the token to be approved\r"
        }
      },
      "balanceOf(address)": {
        "details": "Gets the balance of the specified address.\r",
        "params": {
          "owner": "address to query the balance of\r"
        },
        "return": "uint256 representing the amount owned by the passed address\r"
      },
      "breedHero(uint256,uint256)": {
        "details": "Function to breed 2 vipers to create a new one\r",
        "params": {
          "matronId": "ID of new viper's matron (one parent)\r",
          "sireId": "ID of new viper's sire (other parent)\r"
        },
        "return": "The new viper's ID\r"
      },
      "getApproved(uint256)": {
        "details": "Gets the approved address for a token ID, or zero if no address set\r Reverts if the token ID does not exist.\r",
        "params": {
          "tokenId": "uint256 ID of the token to query the approval of\r"
        },
        "return": "address currently approved for the given token ID\r"
      },
      "isApprovedForAll(address,address)": {
        "details": "Tells whether an operator is approved by a given owner.\r",
        "params": {
          "operator": "operator address which you want to query the approval of\r",
          "owner": "owner address which you want to query the approval of\r"
        },
        "return": "bool whether the given operator is approved by the given owner\r"
      },
      "name()": {
        "details": "Gets the token name.\r",
        "return": "string representing the token name\r"
      },
      "ownerOf(uint256)": {
        "details": "Gets the owner of the specified token ID.\r",
        "params": {
          "tokenId": "uint256 ID of the token to query the owner of\r"
        },
        "return": "address currently marked as the owner of the given token ID\r"
      },
      "safeTransferFrom(address,address,uint256)": {
        "details": "Safely transfers the ownership of a given token ID to another address\r If the target address is a contract, it must implement `onERC721Received`,\r which is called upon a safe transfer, and return the magic value\r `bytes4(keccak256(\"onERC721Received(address,address,uint256,bytes)\"))`; otherwise,\r the transfer is reverted.\r Requires the msg.sender to be the owner, approved, or operator\r",
        "params": {
          "from": "current owner of the token\r",
          "to": "address to receive the ownership of the given token ID\r",
          "tokenId": "uint256 ID of the token to be transferred\r"
        }
      },
      "safeTransferFrom(address,address,uint256,bytes)": {
        "details": "Safely transfers the ownership of a given token ID to another address\r If the target address is a contract, it must implement `onERC721Received`,\r which is called upon a safe transfer, and return the magic value\r `bytes4(keccak256(\"onERC721Received(address,address,uint256,bytes)\"))`; otherwise,\r the transfer is reverted.\r Requires the msg.sender to be the owner, approved, or operator\r",
        "params": {
          "_data": "bytes data to send along with a safe transfer check\r",
          "from": "current owner of the token\r",
          "to": "address to receive the ownership of the given token ID\r",
          "tokenId": "uint256 ID of the token to be transferred\r"
        }
      },
      "setApprovalForAll(address,bool)": {
        "details": "Sets or unsets the approval of a given operator\r An operator is allowed to transfer all tokens of the sender on their behalf.\r",
        "params": {
          "approved": "representing the status of the approval to be set\r",
          "to": "operator address to set the approval\r"
        }
      },
      "supportsInterface(bytes4)": {
        "details": "See `IERC165.supportsInterface`.\r      * Time complexity O(1), guaranteed to always use less than 30 000 gas.\r"
      },
      "symbol()": {
        "details": "Gets the token symbol.\r",
        "return": "string representing the token symbol\r"
      },
      "tokenByIndex(uint256)": {
        "details": "Gets the token ID at a given index of all the tokens in this contract\r Reverts if the index is greater or equal to the total number of tokens.\r",
        "params": {
          "index": "uint256 representing the index to be accessed of the tokens list\r"
        },
        "return": "uint256 token ID at the given index of the tokens list\r"
      },
      "tokenOfOwnerByIndex(address,uint256)": {
        "details": "Gets the token ID at a given index of the tokens list of the requested owner.\r",
        "params": {
          "index": "uint256 representing the index to be accessed of the requested tokens list\r",
          "owner": "address owning the tokens list to be accessed\r"
        },
        "return": "uint256 token ID at the given index of the tokens list owned by the requested address\r"
      },
      "tokenURI(uint256)": {
        "details": "Returns an URI for a given token ID.\r Throws if the token ID does not exist. May return an empty string.\r",
        "params": {
          "tokenId": "uint256 ID of the token to query\r"
        }
      },
      "totalSupply()": {
        "details": "Gets the total amount of tokens stored by the contract.\r",
        "return": "uint256 representing the total amount of tokens\r"
      },
      "transferFrom(address,address,uint256)": {
        "details": "Transfers the ownership of a given token ID to another address.\r Usage of this method is discouraged, use `safeTransferFrom` whenever possible.\r Requires the msg.sender to be the owner, approved, or operator.\r",
        "params": {
          "from": "current owner of the token\r",
          "to": "address to receive the ownership of the given token ID\r",
          "tokenId": "uint256 ID of the token to be transferred\r"
        }
      }
    }
  },
  "userdoc": {
    "methods": {
      "createHero(uint256,uint256)": {
        "notice": "function to create a new character with parents\r    *\r"
      }
    }
  }
}